{
  "_format": "hh-sol-artifact-1",
  "contractName": "Apilink",
  "sourceName": "contracts/Apilink.sol",
  "abi": [
    {
      "inputs": [],
      "stateMutability": "nonpayable",
      "type": "constructor"
    },
    {
      "anonymous": false,
      "inputs": [
        {
          "indexed": false,
          "internalType": "bool",
          "name": "invoke",
          "type": "bool"
        },
        {
          "indexed": false,
          "internalType": "uint256",
          "name": "id",
          "type": "uint256"
        }
      ],
      "name": "invoked",
      "type": "event"
    },
    {
      "anonymous": false,
      "inputs": [
        {
          "indexed": false,
          "internalType": "bool",
          "name": "passwordset",
          "type": "bool"
        }
      ],
      "name": "logInSuccess",
      "type": "event"
    },
    {
      "anonymous": false,
      "inputs": [
        {
          "indexed": false,
          "internalType": "bool",
          "name": "",
          "type": "bool"
        }
      ],
      "name": "resultsRcvd",
      "type": "event"
    },
    {
      "inputs": [
        {
          "internalType": "uint256",
          "name": "_callid",
          "type": "uint256"
        },
        {
          "internalType": "string",
          "name": "_endpoint",
          "type": "string"
        },
        {
          "internalType": "string",
          "name": "_method",
          "type": "string"
        },
        {
          "internalType": "string",
          "name": "_body",
          "type": "string"
        },
        {
          "internalType": "string",
          "name": "_headers",
          "type": "string"
        }
      ],
      "name": "createApiCall",
      "outputs": [],
      "stateMutability": "payable",
      "type": "function"
    },
    {
      "inputs": [
        {
          "internalType": "uint256",
          "name": "_id",
          "type": "uint256"
        }
      ],
      "name": "getApiSpec",
      "outputs": [
        {
          "components": [
            {
              "internalType": "string",
              "name": "endpoint",
              "type": "string"
            },
            {
              "internalType": "string",
              "name": "method",
              "type": "string"
            },
            {
              "internalType": "string",
              "name": "body",
              "type": "string"
            },
            {
              "internalType": "string",
              "name": "headers",
              "type": "string"
            }
          ],
          "internalType": "struct Apilink.Apicalldetails",
          "name": "",
          "type": "tuple"
        }
      ],
      "stateMutability": "view",
      "type": "function"
    },
    {
      "inputs": [
        {
          "internalType": "uint256",
          "name": "_callid",
          "type": "uint256"
        }
      ],
      "name": "getChosenNode",
      "outputs": [
        {
          "internalType": "uint256",
          "name": "",
          "type": "uint256"
        }
      ],
      "stateMutability": "view",
      "type": "function"
    },
    {
      "inputs": [
        {
          "internalType": "address",
          "name": "_node",
          "type": "address"
        }
      ],
      "name": "getNodeId",
      "outputs": [
        {
          "internalType": "uint256",
          "name": "",
          "type": "uint256"
        }
      ],
      "stateMutability": "view",
      "type": "function"
    },
    {
      "inputs": [
        {
          "internalType": "uint256",
          "name": "_callid",
          "type": "uint256"
        }
      ],
      "name": "getResults",
      "outputs": [
        {
          "internalType": "string",
          "name": "",
          "type": "string"
        }
      ],
      "stateMutability": "view",
      "type": "function"
    },
    {
      "inputs": [
        {
          "internalType": "string",
          "name": "_code",
          "type": "string"
        }
      ],
      "name": "isLoggedIn",
      "outputs": [
        {
          "internalType": "bool",
          "name": "",
          "type": "bool"
        }
      ],
      "stateMutability": "view",
      "type": "function"
    },
    {
      "inputs": [
        {
          "internalType": "string",
          "name": "_passcode",
          "type": "string"
        },
        {
          "internalType": "string",
          "name": "_nodeName",
          "type": "string"
        }
      ],
      "name": "login",
      "outputs": [],
      "stateMutability": "nonpayable",
      "type": "function"
    },
    {
      "inputs": [
        {
          "internalType": "uint256",
          "name": "_callid",
          "type": "uint256"
        },
        {
          "internalType": "string",
          "name": "_cid",
          "type": "string"
        }
      ],
      "name": "setResult",
      "outputs": [],
      "stateMutability": "nonpayable",
      "type": "function"
    }
  ],
  "bytecode": "0x608060405234801561001057600080fd5b5060008060146101000a81548160ff021916908315150217905550600060018190555060006004819055506000600581905550611f27806100526000396000f3fe60806040526004361061007b5760003560e01c8063b56e41291161004e578063b56e41291461014c578063b5c8075614610189578063b7dc4020146101c6578063e2b32ec7146102035761007b565b80631a2e937e1461008057806331027970146100bd57806358467dbc146100e657806381a60c0d1461010f575b600080fd5b34801561008c57600080fd5b506100a760048036038101906100a29190610f6b565b61021f565b6040516100b491906110a0565b60405180910390f35b3480156100c957600080fd5b506100e460048036038101906100df9190611127565b610494565b005b3480156100f257600080fd5b5061010d60048036038101906101089190611187565b61057d565b005b34801561011b57600080fd5b5061013660048036038101906101319190610f6b565b610813565b6040516101439190611252565b60405180910390f35b34801561015857600080fd5b50610173600480360381019061016e91906112d2565b6108fb565b604051610180919061130e565b60405180910390f35b34801561019557600080fd5b506101b060048036038101906101ab9190610f6b565b610944565b6040516101bd919061130e565b60405180910390f35b3480156101d257600080fd5b506101ed60048036038101906101e89190611329565b610961565b6040516101fa9190611391565b60405180910390f35b61021d600480360381019061021891906113ac565b610a2f565b005b610227610f03565b60066000838152602001908152602001600020604051806080016040529081600082018054610255906114d7565b80601f0160208091040260200160405190810160405280929190818152602001828054610281906114d7565b80156102ce5780601f106102a3576101008083540402835291602001916102ce565b820191906000526020600020905b8154815290600101906020018083116102b157829003601f168201915b505050505081526020016001820180546102e7906114d7565b80601f0160208091040260200160405190810160405280929190818152602001828054610313906114d7565b80156103605780601f1061033557610100808354040283529160200191610360565b820191906000526020600020905b81548152906001019060200180831161034357829003601f168201915b50505050508152602001600282018054610379906114d7565b80601f01602080910402602001604051908101604052809291908181526020018280546103a5906114d7565b80156103f25780601f106103c7576101008083540402835291602001916103f2565b820191906000526020600020905b8154815290600101906020018083116103d557829003601f168201915b5050505050815260200160038201805461040b906114d7565b80601f0160208091040260200160405190810160405280929190818152602001828054610437906114d7565b80156104845780601f1061045957610100808354040283529160200191610484565b820191906000526020600020905b81548152906001019060200180831161046757829003601f168201915b5050505050815250509050919050565b600083116104d7576040517f08c379a00000000000000000000000000000000000000000000000000000000081526004016104ce90611554565b60405180910390fd5b6000828290501161051d576040517f08c379a0000000000000000000000000000000000000000000000000000000008152600401610514906115c0565b60405180910390fd5b8181600b6000868152602001908152602001600020918261053f9291906117c6565b507f82198b3d7a554a58296506e34c238a808ffb26558a2c27fdb638a632b417a96160016040516105709190611391565b60405180910390a1505050565b600084849050116105c3576040517f08c379a00000000000000000000000000000000000000000000000000000000081526004016105ba906118e2565b60405180910390fd5b60008282905011610609576040517f08c379a00000000000000000000000000000000000000000000000000000000081526004016106009061194e565b60405180910390fd5b8181600760003373ffffffffffffffffffffffffffffffffffffffff1673ffffffffffffffffffffffffffffffffffffffff168152602001908152602001600020600001918261065a9291906117c6565b50338484604051602001610670939291906119f5565b604051602081830303815290604052600760003373ffffffffffffffffffffffffffffffffffffffff1673ffffffffffffffffffffffffffffffffffffffff16815260200190815260200160002060010190816106cd9190611a1f565b506009339080600181540180825580915050600190039060005260206000200160009091909190916101000a81548173ffffffffffffffffffffffffffffffffffffffff021916908373ffffffffffffffffffffffffffffffffffffffff1602179055506001600360006101000a81548160ff0219169083151502179055507fd752453b43f40c1348fc9b50c000edb5f6de776343c745d73c344950c01bcc3f600360009054906101000a900460ff1660405161078a9190611391565b60405180910390a16001600560008282546107a59190611b20565b92505081905550600554600860003373ffffffffffffffffffffffffffffffffffffffff1673ffffffffffffffffffffffffffffffffffffffff168152602001908152602001600020819055506000600360006101000a81548160ff02191690831515021790555050505050565b606060008211610858576040517f08c379a000000000000000000000000000000000000000000000000000000000815260040161084f90611554565b60405180910390fd5b600b60008381526020019081526020016000208054610876906114d7565b80601f01602080910402602001604051908101604052809291908181526020018280546108a2906114d7565b80156108ef5780601f106108c4576101008083540402835291602001916108ef565b820191906000526020600020905b8154815290600101906020018083116108d257829003601f168201915b50505050509050919050565b6000600860008373ffffffffffffffffffffffffffffffffffffffff1673ffffffffffffffffffffffffffffffffffffffff168152602001908152602001600020549050919050565b6000600a6000838152602001908152602001600020549050919050565b6000338383604051602001610978939291906119f5565b60405160208183030381529060405280519060200120600760003373ffffffffffffffffffffffffffffffffffffffff1673ffffffffffffffffffffffffffffffffffffffff1681526020019081526020016000206001016040516109dd9190611bf7565b604051809103902014610a25576040517f08c379a0000000000000000000000000000000000000000000000000000000008152600401610a1c90611c5a565b60405180910390fd5b6001905092915050565b60008911610a72576040517f08c379a0000000000000000000000000000000000000000000000000000000008152600401610a6990611554565b60405180910390fd5b60008888905011610ab8576040517f08c379a0000000000000000000000000000000000000000000000000000000008152600401610aaf90611cc6565b60405180910390fd5b6040518060400160405280600381526020017f4745540000000000000000000000000000000000000000000000000000000000815250805190602001208686604051610b05929190611d0b565b60405180910390201480610b6b57506040518060400160405280600481526020017f504f535400000000000000000000000000000000000000000000000000000000815250805190602001208686604051610b61929190611d0b565b6040518091039020145b610baa576040517f08c379a0000000000000000000000000000000000000000000000000000000008152600401610ba190611d70565b60405180910390fd5b660167e7be07d000341015610bf4576040517f08c379a0000000000000000000000000000000000000000000000000000000008152600401610beb90611ddc565b60405180910390fd5b336000806101000a81548173ffffffffffffffffffffffffffffffffffffffff021916908373ffffffffffffffffffffffffffffffffffffffff1602179055506001600060146101000a81548160ff02191690831515021790555088600181905550610c61600154610e6d565b7ff2db711f53a1e7c1939c8f01f0b6b7cd13f9521a8dea436e6d098baa1bf24f34600060149054906101000a900460ff168a604051610ca1929190611dfc565b60405180910390a160008060146101000a81548160ff021916908315150217905550604051806080016040528089898080601f016020809104026020016040519081016040528093929190818152602001838380828437600081840152601f19601f82011690508083019250505050505050815260200187878080601f016020809104026020016040519081016040528093929190818152602001838380828437600081840152601f19601f82011690508083019250505050505050815260200185858080601f016020809104026020016040519081016040528093929190818152602001838380828437600081840152601f19601f82011690508083019250505050505050815260200183838080601f016020809104026020016040519081016040528093929190818152602001838380828437600081840152601f19601f82011690508083019250505050505050815250600660008b81526020019081526020016000206000820151816000019081610e1c9190611a1f565b506020820151816001019081610e329190611a1f565b506040820151816002019081610e489190611a1f565b506060820151816003019081610e5e9190611a1f565b50905050505050505050505050565b600060098054905011610eb5576040517f08c379a0000000000000000000000000000000000000000000000000000000008152600401610eac90611e71565b60405180910390fd5b60016009805490506001600454610ecc9190611b20565b610ed69190611ec0565b610ee09190611b20565b600481905550600454600a60008381526020019081526020016000208190555050565b6040518060800160405280606081526020016060815260200160608152602001606081525090565b600080fd5b600080fd5b6000819050919050565b610f4881610f35565b8114610f5357600080fd5b50565b600081359050610f6581610f3f565b92915050565b600060208284031215610f8157610f80610f2b565b5b6000610f8f84828501610f56565b91505092915050565b600081519050919050565b600082825260208201905092915050565b60005b83811015610fd2578082015181840152602081019050610fb7565b60008484015250505050565b6000601f19601f8301169050919050565b6000610ffa82610f98565b6110048185610fa3565b9350611014818560208601610fb4565b61101d81610fde565b840191505092915050565b600060808301600083015184820360008601526110458282610fef565b9150506020830151848203602086015261105f8282610fef565b915050604083015184820360408601526110798282610fef565b915050606083015184820360608601526110938282610fef565b9150508091505092915050565b600060208201905081810360008301526110ba8184611028565b905092915050565b600080fd5b600080fd5b600080fd5b60008083601f8401126110e7576110e66110c2565b5b8235905067ffffffffffffffff811115611104576111036110c7565b5b6020830191508360018202830111156111205761111f6110cc565b5b9250929050565b6000806000604084860312156111405761113f610f2b565b5b600061114e86828701610f56565b935050602084013567ffffffffffffffff81111561116f5761116e610f30565b5b61117b868287016110d1565b92509250509250925092565b600080600080604085870312156111a1576111a0610f2b565b5b600085013567ffffffffffffffff8111156111bf576111be610f30565b5b6111cb878288016110d1565b9450945050602085013567ffffffffffffffff8111156111ee576111ed610f30565b5b6111fa878288016110d1565b925092505092959194509250565b600082825260208201905092915050565b600061122482610f98565b61122e8185611208565b935061123e818560208601610fb4565b61124781610fde565b840191505092915050565b6000602082019050818103600083015261126c8184611219565b905092915050565b600073ffffffffffffffffffffffffffffffffffffffff82169050919050565b600061129f82611274565b9050919050565b6112af81611294565b81146112ba57600080fd5b50565b6000813590506112cc816112a6565b92915050565b6000602082840312156112e8576112e7610f2b565b5b60006112f6848285016112bd565b91505092915050565b61130881610f35565b82525050565b600060208201905061132360008301846112ff565b92915050565b600080602083850312156113405761133f610f2b565b5b600083013567ffffffffffffffff81111561135e5761135d610f30565b5b61136a858286016110d1565b92509250509250929050565b60008115159050919050565b61138b81611376565b82525050565b60006020820190506113a66000830184611382565b92915050565b600080600080600080600080600060a08a8c0312156113ce576113cd610f2b565b5b60006113dc8c828d01610f56565b99505060208a013567ffffffffffffffff8111156113fd576113fc610f30565b5b6114098c828d016110d1565b985098505060408a013567ffffffffffffffff81111561142c5761142b610f30565b5b6114388c828d016110d1565b965096505060608a013567ffffffffffffffff81111561145b5761145a610f30565b5b6114678c828d016110d1565b945094505060808a013567ffffffffffffffff81111561148a57611489610f30565b5b6114968c828d016110d1565b92509250509295985092959850929598565b7f4e487b7100000000000000000000000000000000000000000000000000000000600052602260045260246000fd5b600060028204905060018216806114ef57607f821691505b602082108103611502576115016114a8565b5b50919050565b7f43616c6c2069642063616e6e6f74206265206e756c6c00000000000000000000600082015250565b600061153e601683611208565b915061154982611508565b602082019050919050565b6000602082019050818103600083015261156d81611531565b9050919050565b7f4349442063616e6e6f74206265206e756c6c0000000000000000000000000000600082015250565b60006115aa601283611208565b91506115b582611574565b602082019050919050565b600060208201905081810360008301526115d98161159d565b9050919050565b600082905092915050565b7f4e487b7100000000000000000000000000000000000000000000000000000000600052604160045260246000fd5b60008190508160005260206000209050919050565b60006020601f8301049050919050565b600082821b905092915050565b60006008830261167c7fffffffffffffffffffffffffffffffffffffffffffffffffffffffffffffffff8261163f565b611686868361163f565b95508019841693508086168417925050509392505050565b6000819050919050565b60006116c36116be6116b984610f35565b61169e565b610f35565b9050919050565b6000819050919050565b6116dd836116a8565b6116f16116e9826116ca565b84845461164c565b825550505050565b600090565b6117066116f9565b6117118184846116d4565b505050565b5b818110156117355761172a6000826116fe565b600181019050611717565b5050565b601f82111561177a5761174b8161161a565b6117548461162f565b81016020851015611763578190505b61177761176f8561162f565b830182611716565b50505b505050565b600082821c905092915050565b600061179d6000198460080261177f565b1980831691505092915050565b60006117b6838361178c565b9150826002028217905092915050565b6117d083836115e0565b67ffffffffffffffff8111156117e9576117e86115eb565b5b6117f382546114d7565b6117fe828285611739565b6000601f83116001811461182d576000841561181b578287013590505b61182585826117aa565b86555061188d565b601f19841661183b8661161a565b60005b828110156118635784890135825560018201915060208501945060208101905061183e565b86831015611880578489013561187c601f89168261178c565b8355505b6001600288020188555050505b50505050505050565b7f50617373636f64652063616e6e6f7420626520656d7074790000000000000000600082015250565b60006118cc601883611208565b91506118d782611896565b602082019050919050565b600060208201905081810360008301526118fb816118bf565b9050919050565b7f4e6f64656e616d652063616e6e6f7420626520656d7074790000000000000000600082015250565b6000611938601883611208565b915061194382611902565b602082019050919050565b600060208201905081810360008301526119678161192b565b9050919050565b60008160601b9050919050565b60006119868261196e565b9050919050565b60006119988261197b565b9050919050565b6119b06119ab82611294565b61198d565b82525050565b600081905092915050565b82818337600083830152505050565b60006119dc83856119b6565b93506119e98385846119c1565b82840190509392505050565b6000611a01828661199f565b601482019150611a128284866119d0565b9150819050949350505050565b611a2882610f98565b67ffffffffffffffff811115611a4157611a406115eb565b5b611a4b82546114d7565b611a56828285611739565b600060209050601f831160018114611a895760008415611a77578287015190505b611a8185826117aa565b865550611ae9565b601f198416611a978661161a565b60005b82811015611abf57848901518255600182019150602085019450602081019050611a9a565b86831015611adc5784890151611ad8601f89168261178c565b8355505b6001600288020188555050505b505050505050565b7f4e487b7100000000000000000000000000000000000000000000000000000000600052601160045260246000fd5b6000611b2b82610f35565b9150611b3683610f35565b9250828201905080821115611b4e57611b4d611af1565b5b92915050565b600081905092915050565b60008190508160005260206000209050919050565b60008154611b81816114d7565b611b8b8186611b54565b94506001821660008114611ba65760018114611bbb57611bee565b60ff1983168652811515820286019350611bee565b611bc485611b5f565b60005b83811015611be657815481890152600182019150602081019050611bc7565b838801955050505b50505092915050565b6000611c038284611b74565b915081905092915050565b7f4e6f2070616e63616b657320666f7220796f7500000000000000000000000000600082015250565b6000611c44601383611208565b9150611c4f82611c0e565b602082019050919050565b60006020820190508181036000830152611c7381611c37565b9050919050565b7f456e64706f696e742063616e6e6f7420626520656d7074790000000000000000600082015250565b6000611cb0601883611208565b9150611cbb82611c7a565b602082019050919050565b60006020820190508181036000830152611cdf81611ca3565b9050919050565b6000611cf28385611b54565b9350611cff8385846119c1565b82840190509392505050565b6000611d18828486611ce6565b91508190509392505050565b7f4f6e6c792047455420616e6420504f53542061726520737570706f7274656400600082015250565b6000611d5a601f83611208565b9150611d6582611d24565b602082019050919050565b60006020820190508181036000830152611d8981611d4d565b9050919050565b7f4e6f7420656e6f75676820646f7567682077617320737570706c696564000000600082015250565b6000611dc6601d83611208565b9150611dd182611d90565b602082019050919050565b60006020820190508181036000830152611df581611db9565b9050919050565b6000604082019050611e116000830185611382565b611e1e60208301846112ff565b9392505050565b7f4e6f206974656d7320617661696c61626c650000000000000000000000000000600082015250565b6000611e5b601283611208565b9150611e6682611e25565b602082019050919050565b60006020820190508181036000830152611e8a81611e4e565b9050919050565b7f4e487b7100000000000000000000000000000000000000000000000000000000600052601260045260246000fd5b6000611ecb82610f35565b9150611ed683610f35565b925082611ee657611ee5611e91565b5b82820690509291505056fea2646970667358221220b0536fbedb276c96b82c1e10b6185703529ef9292566aa7b55afdcaba9672a9c64736f6c63430008110033",
  "linkReferences": {},
  "deployedLinkReferences": {}
}