{
  "_format": "hh-sol-artifact-1",
  "contractName": "Apilink",
  "sourceName": "contracts/Apilink.sol",
  "abi": [
    {
      "inputs": [],
      "stateMutability": "nonpayable",
      "type": "constructor"
    },
    {
      "anonymous": false,
      "inputs": [
        {
          "indexed": false,
          "internalType": "bool",
          "name": "invoke",
          "type": "bool"
        }
      ],
      "name": "invoked",
      "type": "event"
    },
    {
      "inputs": [],
      "name": "getApiSpec",
      "outputs": [
        {
          "internalType": "string",
          "name": "",
          "type": "string"
        }
      ],
      "stateMutability": "view",
      "type": "function"
    },
    {
      "inputs": [
        {
          "internalType": "string",
          "name": "_apispec",
          "type": "string"
        }
      ],
      "name": "setApiSpec",
      "outputs": [],
      "stateMutability": "nonpayable",
      "type": "function"
    }
  ],
  "bytecode": "0x60806040523480156200001157600080fd5b506040518060200160405280600081525060009081620000329190620002ce565b506000600160146101000a81548160ff021916908315150217905550620003b5565b600081519050919050565b7f4e487b7100000000000000000000000000000000000000000000000000000000600052604160045260246000fd5b7f4e487b7100000000000000000000000000000000000000000000000000000000600052602260045260246000fd5b60006002820490506001821680620000d657607f821691505b602082108103620000ec57620000eb6200008e565b5b50919050565b60008190508160005260206000209050919050565b60006020601f8301049050919050565b600082821b905092915050565b600060088302620001567fffffffffffffffffffffffffffffffffffffffffffffffffffffffffffffffff8262000117565b62000162868362000117565b95508019841693508086168417925050509392505050565b6000819050919050565b6000819050919050565b6000620001af620001a9620001a3846200017a565b62000184565b6200017a565b9050919050565b6000819050919050565b620001cb836200018e565b620001e3620001da82620001b6565b84845462000124565b825550505050565b600090565b620001fa620001eb565b62000207818484620001c0565b505050565b5b818110156200022f5762000223600082620001f0565b6001810190506200020d565b5050565b601f8211156200027e576200024881620000f2565b620002538462000107565b8101602085101562000263578190505b6200027b620002728562000107565b8301826200020c565b50505b505050565b600082821c905092915050565b6000620002a36000198460080262000283565b1980831691505092915050565b6000620002be838362000290565b9150826002028217905092915050565b620002d98262000054565b67ffffffffffffffff811115620002f557620002f46200005f565b5b620003018254620000bd565b6200030e82828562000233565b600060209050601f83116001811462000346576000841562000331578287015190505b6200033d8582620002b0565b865550620003ad565b601f1984166200035686620000f2565b60005b82811015620003805784890151825560018201915060208501945060208101905062000359565b86831015620003a057848901516200039c601f89168262000290565b8355505b6001600288020188555050505b505050505050565b61076a80620003c56000396000f3fe608060405234801561001057600080fd5b50600436106100365760003560e01c80633b947fbb1461003b578063b902fe3d14610059575b600080fd5b610043610075565b6040516100509190610294565b60405180910390f35b610073600480360381019061006e9190610325565b610107565b005b606060008054610084906103a1565b80601f01602080910402602001604051908101604052809291908181526020018280546100b0906103a1565b80156100fd5780601f106100d2576101008083540402835291602001916100fd565b820191906000526020600020905b8154815290600101906020018083116100e057829003601f168201915b5050505050905090565b6000828290500361014d576040517f08c379a00000000000000000000000000000000000000000000000000000000081526004016101449061041e565b60405180910390fd5b81816000918261015e92919061062e565b5033600160006101000a81548173ffffffffffffffffffffffffffffffffffffffff021916908373ffffffffffffffffffffffffffffffffffffffff16021790555060018060146101000a81548160ff0219169083151502179055507fc3bac773f68e28426a44561a0db8c875b6e32e828c7dfd1c870d2e616dcd678c600160149054906101000a900460ff166040516101f89190610719565b60405180910390a15050565b600081519050919050565b600082825260208201905092915050565b60005b8381101561023e578082015181840152602081019050610223565b60008484015250505050565b6000601f19601f8301169050919050565b600061026682610204565b610270818561020f565b9350610280818560208601610220565b6102898161024a565b840191505092915050565b600060208201905081810360008301526102ae818461025b565b905092915050565b600080fd5b600080fd5b600080fd5b600080fd5b600080fd5b60008083601f8401126102e5576102e46102c0565b5b8235905067ffffffffffffffff811115610302576103016102c5565b5b60208301915083600182028301111561031e5761031d6102ca565b5b9250929050565b6000806020838503121561033c5761033b6102b6565b5b600083013567ffffffffffffffff81111561035a576103596102bb565b5b610366858286016102cf565b92509250509250929050565b7f4e487b7100000000000000000000000000000000000000000000000000000000600052602260045260246000fd5b600060028204905060018216806103b957607f821691505b6020821081036103cc576103cb610372565b5b50919050565b7f537065632063616e6e6f7420626520656d707479000000000000000000000000600082015250565b600061040860148361020f565b9150610413826103d2565b602082019050919050565b60006020820190508181036000830152610437816103fb565b9050919050565b600082905092915050565b7f4e487b7100000000000000000000000000000000000000000000000000000000600052604160045260246000fd5b60008190508160005260206000209050919050565b60006020601f8301049050919050565b600082821b905092915050565b6000600883026104da7fffffffffffffffffffffffffffffffffffffffffffffffffffffffffffffffff8261049d565b6104e4868361049d565b95508019841693508086168417925050509392505050565b6000819050919050565b6000819050919050565b600061052b610526610521846104fc565b610506565b6104fc565b9050919050565b6000819050919050565b61054583610510565b61055961055182610532565b8484546104aa565b825550505050565b600090565b61056e610561565b61057981848461053c565b505050565b5b8181101561059d57610592600082610566565b60018101905061057f565b5050565b601f8211156105e2576105b381610478565b6105bc8461048d565b810160208510156105cb578190505b6105df6105d78561048d565b83018261057e565b50505b505050565b600082821c905092915050565b6000610605600019846008026105e7565b1980831691505092915050565b600061061e83836105f4565b9150826002028217905092915050565b610638838361043e565b67ffffffffffffffff81111561065157610650610449565b5b61065b82546103a1565b6106668282856105a1565b6000601f8311600181146106955760008415610683578287013590505b61068d8582610612565b8655506106f5565b601f1984166106a386610478565b60005b828110156106cb578489013582556001820191506020850194506020810190506106a6565b868310156106e857848901356106e4601f8916826105f4565b8355505b6001600288020188555050505b50505050505050565b60008115159050919050565b610713816106fe565b82525050565b600060208201905061072e600083018461070a565b9291505056fea26469706673582212207ac2e92357ada3fa2e4e971ceab128978d531e2b97f9fc9343f227f21c72c70f64736f6c63430008110033",
  "linkReferences": {},
  "deployedLinkReferences": {}
}