{
  "_format": "hh-sol-artifact-1",
  "contractName": "Apilink",
  "sourceName": "contracts/Apilink.sol",
  "abi": [
    {
      "inputs": [],
      "stateMutability": "nonpayable",
      "type": "constructor"
    },
    {
      "anonymous": false,
      "inputs": [
        {
          "indexed": false,
          "internalType": "string",
          "name": "invokedApiSpec",
          "type": "string"
        },
        {
          "indexed": false,
          "internalType": "address",
          "name": "invokingUser",
          "type": "address"
        }
      ],
      "name": "invoked",
      "type": "event"
    },
    {
      "inputs": [
        {
          "internalType": "string",
          "name": "_apispec",
          "type": "string"
        }
      ],
      "name": "setApiSpec",
      "outputs": [],
      "stateMutability": "nonpayable",
      "type": "function"
    }
  ],
  "bytecode": "0x60806040523480156200001157600080fd5b506040518060200160405280600081525060009081620000329190620002b3565b506200039a565b600081519050919050565b7f4e487b7100000000000000000000000000000000000000000000000000000000600052604160045260246000fd5b7f4e487b7100000000000000000000000000000000000000000000000000000000600052602260045260246000fd5b60006002820490506001821680620000bb57607f821691505b602082108103620000d157620000d062000073565b5b50919050565b60008190508160005260206000209050919050565b60006020601f8301049050919050565b600082821b905092915050565b6000600883026200013b7fffffffffffffffffffffffffffffffffffffffffffffffffffffffffffffffff82620000fc565b620001478683620000fc565b95508019841693508086168417925050509392505050565b6000819050919050565b6000819050919050565b6000620001946200018e62000188846200015f565b62000169565b6200015f565b9050919050565b6000819050919050565b620001b08362000173565b620001c8620001bf826200019b565b84845462000109565b825550505050565b600090565b620001df620001d0565b620001ec818484620001a5565b505050565b5b81811015620002145762000208600082620001d5565b600181019050620001f2565b5050565b601f82111562000263576200022d81620000d7565b6200023884620000ec565b8101602085101562000248578190505b620002606200025785620000ec565b830182620001f1565b50505b505050565b600082821c905092915050565b6000620002886000198460080262000268565b1980831691505092915050565b6000620002a3838362000275565b9150826002028217905092915050565b620002be8262000039565b67ffffffffffffffff811115620002da57620002d962000044565b5b620002e68254620000a2565b620002f382828562000218565b600060209050601f8311600181146200032b576000841562000316578287015190505b62000322858262000295565b86555062000392565b601f1984166200033b86620000d7565b60005b8281101562000365578489015182556001820191506020850194506020810190506200033e565b8683101562000385578489015162000381601f89168262000275565b8355505b6001600288020188555050505b505050505050565b6106c980620003aa6000396000f3fe608060405234801561001057600080fd5b506004361061002b5760003560e01c8063b902fe3d14610030575b600080fd5b61004a600480360381019061004591906101b4565b61004c565b005b60008282905003610092576040517f08c379a00000000000000000000000000000000000000000000000000000000081526004016100899061025e565b60405180910390fd5b8181600091826100a39291906104ce565b5033600160006101000a81548173ffffffffffffffffffffffffffffffffffffffff021916908373ffffffffffffffffffffffffffffffffffffffff1602179055507f59692ae4ae4be73e0033586807dabb61269455678db329fea4f442756437bed36000600160009054906101000a900473ffffffffffffffffffffffffffffffffffffffff16604051610139929190610663565b60405180910390a15050565b600080fd5b600080fd5b600080fd5b600080fd5b600080fd5b60008083601f8401126101745761017361014f565b5b8235905067ffffffffffffffff81111561019157610190610154565b5b6020830191508360018202830111156101ad576101ac610159565b5b9250929050565b600080602083850312156101cb576101ca610145565b5b600083013567ffffffffffffffff8111156101e9576101e861014a565b5b6101f58582860161015e565b92509250509250929050565b600082825260208201905092915050565b7f537065632063616e6e6f7420626520656d707479000000000000000000000000600082015250565b6000610248601483610201565b915061025382610212565b602082019050919050565b600060208201905081810360008301526102778161023b565b9050919050565b600082905092915050565b7f4e487b7100000000000000000000000000000000000000000000000000000000600052604160045260246000fd5b7f4e487b7100000000000000000000000000000000000000000000000000000000600052602260045260246000fd5b600060028204905060018216806102ff57607f821691505b602082108103610312576103116102b8565b5b50919050565b60008190508160005260206000209050919050565b60006020601f8301049050919050565b600082821b905092915050565b60006008830261037a7fffffffffffffffffffffffffffffffffffffffffffffffffffffffffffffffff8261033d565b610384868361033d565b95508019841693508086168417925050509392505050565b6000819050919050565b6000819050919050565b60006103cb6103c66103c18461039c565b6103a6565b61039c565b9050919050565b6000819050919050565b6103e5836103b0565b6103f96103f1826103d2565b84845461034a565b825550505050565b600090565b61040e610401565b6104198184846103dc565b505050565b5b8181101561043d57610432600082610406565b60018101905061041f565b5050565b601f8211156104825761045381610318565b61045c8461032d565b8101602085101561046b578190505b61047f6104778561032d565b83018261041e565b50505b505050565b600082821c905092915050565b60006104a560001984600802610487565b1980831691505092915050565b60006104be8383610494565b9150826002028217905092915050565b6104d8838361027e565b67ffffffffffffffff8111156104f1576104f0610289565b5b6104fb82546102e7565b610506828285610441565b6000601f8311600181146105355760008415610523578287013590505b61052d85826104b2565b865550610595565b601f19841661054386610318565b60005b8281101561056b57848901358255600182019150602085019450602081019050610546565b868310156105885784890135610584601f891682610494565b8355505b6001600288020188555050505b50505050505050565b600081546105ab816102e7565b6105b58186610201565b945060018216600081146105d057600181146105e657610619565b60ff198316865281151560200286019350610619565b6105ef85610318565b60005b83811015610611578154818901526001820191506020810190506105f2565b808801955050505b50505092915050565b600073ffffffffffffffffffffffffffffffffffffffff82169050919050565b600061064d82610622565b9050919050565b61065d81610642565b82525050565b6000604082019050818103600083015261067d818561059e565b905061068c6020830184610654565b939250505056fea2646970667358221220017ec24d2efc86f15da056a3d8565e88be0c2c7361de3d981310d6c75b88916964736f6c63430008110033",
  "linkReferences": {},
  "deployedLinkReferences": {}
}