{
  "_format": "hh-sol-artifact-1",
  "contractName": "Apilink",
  "sourceName": "contracts/Apilink.sol",
  "abi": [
    {
      "inputs": [],
      "stateMutability": "nonpayable",
      "type": "constructor"
    },
    {
      "anonymous": false,
      "inputs": [
        {
          "indexed": false,
          "internalType": "bool",
          "name": "invoke",
          "type": "bool"
        },
        {
          "indexed": false,
          "internalType": "uint256",
          "name": "id",
          "type": "uint256"
        }
      ],
      "name": "invoked",
      "type": "event"
    },
    {
      "anonymous": false,
      "inputs": [
        {
          "components": [
            {
              "internalType": "string",
              "name": "endpoint",
              "type": "string"
            },
            {
              "internalType": "string",
              "name": "method",
              "type": "string"
            },
            {
              "internalType": "string",
              "name": "body",
              "type": "string"
            },
            {
              "internalType": "string",
              "name": "headers",
              "type": "string"
            }
          ],
          "indexed": false,
          "internalType": "struct Apilink.apicalldetails",
          "name": "api",
          "type": "tuple"
        }
      ],
      "name": "log",
      "type": "event"
    },
    {
      "anonymous": false,
      "inputs": [
        {
          "indexed": false,
          "internalType": "bool",
          "name": "loginStatus",
          "type": "bool"
        }
      ],
      "name": "logInStatus",
      "type": "event"
    },
    {
      "anonymous": false,
      "inputs": [
        {
          "indexed": false,
          "internalType": "bool",
          "name": "passwordset",
          "type": "bool"
        }
      ],
      "name": "logInSuccess",
      "type": "event"
    },
    {
      "anonymous": false,
      "inputs": [
        {
          "indexed": false,
          "internalType": "string",
          "name": "text",
          "type": "string"
        },
        {
          "components": [
            {
              "internalType": "string",
              "name": "nodeName",
              "type": "string"
            },
            {
              "internalType": "string",
              "name": "password",
              "type": "string"
            }
          ],
          "indexed": false,
          "internalType": "struct Apilink.nodeDetails",
          "name": "node",
          "type": "tuple"
        }
      ],
      "name": "logNode",
      "type": "event"
    },
    {
      "inputs": [
        {
          "internalType": "uint256",
          "name": "_callid",
          "type": "uint256"
        },
        {
          "internalType": "string",
          "name": "_endpoint",
          "type": "string"
        },
        {
          "internalType": "string",
          "name": "_method",
          "type": "string"
        },
        {
          "internalType": "string",
          "name": "_body",
          "type": "string"
        },
        {
          "internalType": "string",
          "name": "_headers",
          "type": "string"
        }
      ],
      "name": "createApiCall",
      "outputs": [],
      "stateMutability": "payable",
      "type": "function"
    },
    {
      "inputs": [
        {
          "internalType": "address",
          "name": "_user",
          "type": "address"
        },
        {
          "internalType": "uint256",
          "name": "_id",
          "type": "uint256"
        }
      ],
      "name": "getApiSpec",
      "outputs": [
        {
          "components": [
            {
              "internalType": "string",
              "name": "endpoint",
              "type": "string"
            },
            {
              "internalType": "string",
              "name": "method",
              "type": "string"
            },
            {
              "internalType": "string",
              "name": "body",
              "type": "string"
            },
            {
              "internalType": "string",
              "name": "headers",
              "type": "string"
            }
          ],
          "internalType": "struct Apilink.apicalldetails",
          "name": "",
          "type": "tuple"
        }
      ],
      "stateMutability": "view",
      "type": "function"
    },
    {
      "inputs": [],
      "name": "getChosenNode",
      "outputs": [
        {
          "internalType": "uint256",
          "name": "",
          "type": "uint256"
        }
      ],
      "stateMutability": "view",
      "type": "function"
    },
    {
      "inputs": [
        {
          "internalType": "address",
          "name": "_node",
          "type": "address"
        }
      ],
      "name": "getNodeId",
      "outputs": [
        {
          "internalType": "uint256",
          "name": "",
          "type": "uint256"
        }
      ],
      "stateMutability": "view",
      "type": "function"
    },
    {
      "inputs": [
        {
          "internalType": "string",
          "name": "_code",
          "type": "string"
        }
      ],
      "name": "isLoggedIn",
      "outputs": [],
      "stateMutability": "nonpayable",
      "type": "function"
    },
    {
      "inputs": [
        {
          "internalType": "string",
          "name": "_passcode",
          "type": "string"
        },
        {
          "internalType": "string",
          "name": "_nodeName",
          "type": "string"
        }
      ],
      "name": "login",
      "outputs": [],
      "stateMutability": "nonpayable",
      "type": "function"
    }
  ],
  "bytecode": "0x608060405234801561001057600080fd5b5060008060146101000a81548160ff02191690831515021790555060006001819055506000600260016101000a81548160ff02191690831515021790555060006003819055506000600481905550611d858061006d6000396000f3fe6080604052600436106100555760003560e01c806334eea6071461005a5780634c34b43a1461009757806358467dbc146100c2578063b56e4129146100eb578063b7dc402014610128578063e2b32ec714610151575b600080fd5b34801561006657600080fd5b50610081600480360381019061007c9190610e1f565b61016d565b60405161008e9190610f67565b60405180910390f35b3480156100a357600080fd5b506100ac610420565b6040516100b99190610f98565b60405180910390f35b3480156100ce57600080fd5b506100e960048036038101906100e49190611018565b61042a565b005b3480156100f757600080fd5b50610112600480360381019061010d9190611099565b6106c0565b60405161011f9190610f98565b60405180910390f35b34801561013457600080fd5b5061014f600480360381019061014a91906110c6565b610709565b005b61016b60048036038101906101669190611113565b610830565b005b610175610d59565b600560003373ffffffffffffffffffffffffffffffffffffffff1673ffffffffffffffffffffffffffffffffffffffff16815260200190815260200160002060008381526020019081526020016000206040518060800160405290816000820180546101e09061123e565b80601f016020809104026020016040519081016040528092919081815260200182805461020c9061123e565b80156102595780601f1061022e57610100808354040283529160200191610259565b820191906000526020600020905b81548152906001019060200180831161023c57829003601f168201915b505050505081526020016001820180546102729061123e565b80601f016020809104026020016040519081016040528092919081815260200182805461029e9061123e565b80156102eb5780601f106102c0576101008083540402835291602001916102eb565b820191906000526020600020905b8154815290600101906020018083116102ce57829003601f168201915b505050505081526020016002820180546103049061123e565b80601f01602080910402602001604051908101604052809291908181526020018280546103309061123e565b801561037d5780601f106103525761010080835404028352916020019161037d565b820191906000526020600020905b81548152906001019060200180831161036057829003601f168201915b505050505081526020016003820180546103969061123e565b80601f01602080910402602001604051908101604052809291908181526020018280546103c29061123e565b801561040f5780601f106103e45761010080835404028352916020019161040f565b820191906000526020600020905b8154815290600101906020018083116103f257829003601f168201915b505050505081525050905092915050565b6000600354905090565b60008484905011610470576040517f08c379a0000000000000000000000000000000000000000000000000000000008152600401610467906112cc565b60405180910390fd5b600082829050116104b6576040517f08c379a00000000000000000000000000000000000000000000000000000000081526004016104ad90611338565b60405180910390fd5b8181600660003373ffffffffffffffffffffffffffffffffffffffff1673ffffffffffffffffffffffffffffffffffffffff168152602001908152602001600020600001918261050792919061153e565b5033848460405160200161051d93929190611695565b604051602081830303815290604052600660003373ffffffffffffffffffffffffffffffffffffffff1673ffffffffffffffffffffffffffffffffffffffff168152602001908152602001600020600101908161057a91906116bf565b506008339080600181540180825580915050600190039060005260206000200160009091909190916101000a81548173ffffffffffffffffffffffffffffffffffffffff021916908373ffffffffffffffffffffffffffffffffffffffff1602179055506001600260006101000a81548160ff0219169083151502179055507fd752453b43f40c1348fc9b50c000edb5f6de776343c745d73c344950c01bcc3f600260009054906101000a900460ff1660405161063791906117ac565b60405180910390a160016004600082825461065291906117f6565b92505081905550600454600760003373ffffffffffffffffffffffffffffffffffffffff1673ffffffffffffffffffffffffffffffffffffffff168152602001908152602001600020819055506000600260006101000a81548160ff02191690831515021790555050505050565b6000600760008373ffffffffffffffffffffffffffffffffffffffff1673ffffffffffffffffffffffffffffffffffffffff168152602001908152602001600020549050919050565b33828260405160200161071e93929190611695565b60405160208183030381529060405280519060200120600660003373ffffffffffffffffffffffffffffffffffffffff1673ffffffffffffffffffffffffffffffffffffffff16815260200190815260200160002060010160405161078391906118cd565b6040518091039020146107cb576040517f08c379a00000000000000000000000000000000000000000000000000000000081526004016107c290611930565b60405180910390fd5b6001600260016101000a81548160ff0219169083151502179055507f312943f07fdce5c520f52c201f9ce2c67862745f76974b614f03a69f92701c37600260019054906101000a900460ff1660405161082491906117ac565b60405180910390a15050565b60008911610873576040517f08c379a000000000000000000000000000000000000000000000000000000000815260040161086a9061199c565b60405180910390fd5b600088889050116108b9576040517f08c379a00000000000000000000000000000000000000000000000000000000081526004016108b090611a08565b60405180910390fd5b6040518060400160405280600381526020017f4745540000000000000000000000000000000000000000000000000000000000815250805190602001208686604051610906929190611a4d565b6040518091039020148061096c57506040518060400160405280600481526020017f504f535400000000000000000000000000000000000000000000000000000000815250805190602001208686604051610962929190611a4d565b6040518091039020145b6109ab576040517f08c379a00000000000000000000000000000000000000000000000000000000081526004016109a290611ab2565b60405180910390fd5b660167e7be07d0003410156109f5576040517f08c379a00000000000000000000000000000000000000000000000000000000081526004016109ec90611b1e565b60405180910390fd5b336000806101000a81548173ffffffffffffffffffffffffffffffffffffffff021916908373ffffffffffffffffffffffffffffffffffffffff1602179055506001600060146101000a81548160ff02191690831515021790555088600181905550610a5f610cde565b7ff2db711f53a1e7c1939c8f01f0b6b7cd13f9521a8dea436e6d098baa1bf24f34600060149054906101000a900460ff168a604051610a9f929190611b3e565b60405180910390a160008060146101000a81548160ff0219169083151502179055508787600560003373ffffffffffffffffffffffffffffffffffffffff1673ffffffffffffffffffffffffffffffffffffffff16815260200190815260200160002060008c81526020019081526020016000206000019182610b2392919061153e565b508585600560003373ffffffffffffffffffffffffffffffffffffffff1673ffffffffffffffffffffffffffffffffffffffff16815260200190815260200160002060008c81526020019081526020016000206001019182610b8692919061153e565b508383600560003373ffffffffffffffffffffffffffffffffffffffff1673ffffffffffffffffffffffffffffffffffffffff16815260200190815260200160002060008c81526020019081526020016000206002019182610be992919061153e565b508181600560003373ffffffffffffffffffffffffffffffffffffffff1673ffffffffffffffffffffffffffffffffffffffff16815260200190815260200160002060008c81526020019081526020016000206003019182610c4c92919061153e565b507fc9f6944f2ce5d08aeadb1a80c990e0175dd85ce2e1d63cd0f57288f85de80940600560003373ffffffffffffffffffffffffffffffffffffffff1673ffffffffffffffffffffffffffffffffffffffff16815260200190815260200160002060008b8152602001908152602001600020604051610ccb9190611c61565b60405180910390a1505050505050505050565b600060088054905011610d26576040517f08c379a0000000000000000000000000000000000000000000000000000000008152600401610d1d90611ccf565b60405180910390fd5b60016008805490506001600354610d3d91906117f6565b610d479190611d1e565b610d5191906117f6565b600381905550565b6040518060800160405280606081526020016060815260200160608152602001606081525090565b600080fd5b600080fd5b600073ffffffffffffffffffffffffffffffffffffffff82169050919050565b6000610db682610d8b565b9050919050565b610dc681610dab565b8114610dd157600080fd5b50565b600081359050610de381610dbd565b92915050565b6000819050919050565b610dfc81610de9565b8114610e0757600080fd5b50565b600081359050610e1981610df3565b92915050565b60008060408385031215610e3657610e35610d81565b5b6000610e4485828601610dd4565b9250506020610e5585828601610e0a565b9150509250929050565b600081519050919050565b600082825260208201905092915050565b60005b83811015610e99578082015181840152602081019050610e7e565b60008484015250505050565b6000601f19601f8301169050919050565b6000610ec182610e5f565b610ecb8185610e6a565b9350610edb818560208601610e7b565b610ee481610ea5565b840191505092915050565b60006080830160008301518482036000860152610f0c8282610eb6565b91505060208301518482036020860152610f268282610eb6565b91505060408301518482036040860152610f408282610eb6565b91505060608301518482036060860152610f5a8282610eb6565b9150508091505092915050565b60006020820190508181036000830152610f818184610eef565b905092915050565b610f9281610de9565b82525050565b6000602082019050610fad6000830184610f89565b92915050565b600080fd5b600080fd5b600080fd5b60008083601f840112610fd857610fd7610fb3565b5b8235905067ffffffffffffffff811115610ff557610ff4610fb8565b5b60208301915083600182028301111561101157611010610fbd565b5b9250929050565b6000806000806040858703121561103257611031610d81565b5b600085013567ffffffffffffffff8111156110505761104f610d86565b5b61105c87828801610fc2565b9450945050602085013567ffffffffffffffff81111561107f5761107e610d86565b5b61108b87828801610fc2565b925092505092959194509250565b6000602082840312156110af576110ae610d81565b5b60006110bd84828501610dd4565b91505092915050565b600080602083850312156110dd576110dc610d81565b5b600083013567ffffffffffffffff8111156110fb576110fa610d86565b5b61110785828601610fc2565b92509250509250929050565b600080600080600080600080600060a08a8c03121561113557611134610d81565b5b60006111438c828d01610e0a565b99505060208a013567ffffffffffffffff81111561116457611163610d86565b5b6111708c828d01610fc2565b985098505060408a013567ffffffffffffffff81111561119357611192610d86565b5b61119f8c828d01610fc2565b965096505060608a013567ffffffffffffffff8111156111c2576111c1610d86565b5b6111ce8c828d01610fc2565b945094505060808a013567ffffffffffffffff8111156111f1576111f0610d86565b5b6111fd8c828d01610fc2565b92509250509295985092959850929598565b7f4e487b7100000000000000000000000000000000000000000000000000000000600052602260045260246000fd5b6000600282049050600182168061125657607f821691505b6020821081036112695761126861120f565b5b50919050565b600082825260208201905092915050565b7f50617373636f64652063616e6e6f7420626520656d7074790000000000000000600082015250565b60006112b660188361126f565b91506112c182611280565b602082019050919050565b600060208201905081810360008301526112e5816112a9565b9050919050565b7f4e6f64656e616d652063616e6e6f7420626520656d7074790000000000000000600082015250565b600061132260188361126f565b915061132d826112ec565b602082019050919050565b6000602082019050818103600083015261135181611315565b9050919050565b600082905092915050565b7f4e487b7100000000000000000000000000000000000000000000000000000000600052604160045260246000fd5b60008190508160005260206000209050919050565b60006020601f8301049050919050565b600082821b905092915050565b6000600883026113f47fffffffffffffffffffffffffffffffffffffffffffffffffffffffffffffffff826113b7565b6113fe86836113b7565b95508019841693508086168417925050509392505050565b6000819050919050565b600061143b61143661143184610de9565b611416565b610de9565b9050919050565b6000819050919050565b61145583611420565b61146961146182611442565b8484546113c4565b825550505050565b600090565b61147e611471565b61148981848461144c565b505050565b5b818110156114ad576114a2600082611476565b60018101905061148f565b5050565b601f8211156114f2576114c381611392565b6114cc846113a7565b810160208510156114db578190505b6114ef6114e7856113a7565b83018261148e565b50505b505050565b600082821c905092915050565b6000611515600019846008026114f7565b1980831691505092915050565b600061152e8383611504565b9150826002028217905092915050565b6115488383611358565b67ffffffffffffffff81111561156157611560611363565b5b61156b825461123e565b6115768282856114b1565b6000601f8311600181146115a55760008415611593578287013590505b61159d8582611522565b865550611605565b601f1984166115b386611392565b60005b828110156115db578489013582556001820191506020850194506020810190506115b6565b868310156115f857848901356115f4601f891682611504565b8355505b6001600288020188555050505b50505050505050565b60008160601b9050919050565b60006116268261160e565b9050919050565b60006116388261161b565b9050919050565b61165061164b82610dab565b61162d565b82525050565b600081905092915050565b82818337600083830152505050565b600061167c8385611656565b9350611689838584611661565b82840190509392505050565b60006116a1828661163f565b6014820191506116b2828486611670565b9150819050949350505050565b6116c882610e5f565b67ffffffffffffffff8111156116e1576116e0611363565b5b6116eb825461123e565b6116f68282856114b1565b600060209050601f8311600181146117295760008415611717578287015190505b6117218582611522565b865550611789565b601f19841661173786611392565b60005b8281101561175f5784890151825560018201915060208501945060208101905061173a565b8683101561177c5784890151611778601f891682611504565b8355505b6001600288020188555050505b505050505050565b60008115159050919050565b6117a681611791565b82525050565b60006020820190506117c1600083018461179d565b92915050565b7f4e487b7100000000000000000000000000000000000000000000000000000000600052601160045260246000fd5b600061180182610de9565b915061180c83610de9565b9250828201905080821115611824576118236117c7565b5b92915050565b600081905092915050565b60008190508160005260206000209050919050565b600081546118578161123e565b611861818661182a565b9450600182166000811461187c5760018114611891576118c4565b60ff19831686528115158202860193506118c4565b61189a85611835565b60005b838110156118bc5781548189015260018201915060208101905061189d565b838801955050505b50505092915050565b60006118d9828461184a565b915081905092915050565b7f4e6f2070616e63616b657320666f7220796f7500000000000000000000000000600082015250565b600061191a60138361126f565b9150611925826118e4565b602082019050919050565b600060208201905081810360008301526119498161190d565b9050919050565b7f43616c6c2069642063616e6e6f74206265206e756c6c00000000000000000000600082015250565b600061198660168361126f565b915061199182611950565b602082019050919050565b600060208201905081810360008301526119b581611979565b9050919050565b7f456e64706f696e742063616e6e6f7420626520656d7074790000000000000000600082015250565b60006119f260188361126f565b91506119fd826119bc565b602082019050919050565b60006020820190508181036000830152611a21816119e5565b9050919050565b6000611a34838561182a565b9350611a41838584611661565b82840190509392505050565b6000611a5a828486611a28565b91508190509392505050565b7f4f6e6c792047455420616e6420504f53542061726520737570706f7274656400600082015250565b6000611a9c601f8361126f565b9150611aa782611a66565b602082019050919050565b60006020820190508181036000830152611acb81611a8f565b9050919050565b7f4e6f7420656e6f75676820646f7567682077617320737570706c696564000000600082015250565b6000611b08601d8361126f565b9150611b1382611ad2565b602082019050919050565b60006020820190508181036000830152611b3781611afb565b9050919050565b6000604082019050611b53600083018561179d565b611b606020830184610f89565b9392505050565b60008154611b748161123e565b611b7e8186610e6a565b94506001821660008114611b995760018114611baf57611be2565b60ff198316865281151560200286019350611be2565b611bb885611392565b60005b83811015611bda57815481890152600182019150602081019050611bbb565b808801955050505b50505092915050565b60006080830160008084018583036000870152611c088382611b67565b925050600184018583036020870152611c218382611b67565b925050600284018583036040870152611c3a8382611b67565b925050600384018583036060870152611c538382611b67565b925050819250505092915050565b60006020820190508181036000830152611c7b8184611beb565b905092915050565b7f4e6f206974656d7320617661696c61626c650000000000000000000000000000600082015250565b6000611cb960128361126f565b9150611cc482611c83565b602082019050919050565b60006020820190508181036000830152611ce881611cac565b9050919050565b7f4e487b7100000000000000000000000000000000000000000000000000000000600052601260045260246000fd5b6000611d2982610de9565b9150611d3483610de9565b925082611d4457611d43611cef565b5b82820690509291505056fea264697066735822122072fd1d014a8da13bdbbb6a90e7017eabbdd00608b5486566715545b3e26bc43d64736f6c63430008110033",
  "linkReferences": {},
  "deployedLinkReferences": {}
}