{
  "_format": "hh-sol-artifact-1",
  "contractName": "Apilink",
  "sourceName": "contracts/Apilink.sol",
  "abi": [
    {
      "inputs": [],
      "stateMutability": "nonpayable",
      "type": "constructor"
    },
    {
      "anonymous": false,
      "inputs": [
        {
          "indexed": false,
          "internalType": "bool",
          "name": "invoke",
          "type": "bool"
        }
      ],
      "name": "invoked",
      "type": "event"
    },
    {
      "inputs": [],
      "name": "getApiSpec",
      "outputs": [
        {
          "internalType": "string",
          "name": "",
          "type": "string"
        }
      ],
      "stateMutability": "view",
      "type": "function"
    },
    {
      "inputs": [
        {
          "internalType": "string",
          "name": "_apispec",
          "type": "string"
        }
      ],
      "name": "setApiSpec",
      "outputs": [],
      "stateMutability": "payable",
      "type": "function"
    }
  ],
  "bytecode": "0x60806040523480156200001157600080fd5b506040518060200160405280600081525060009081620000329190620002ce565b506000600160146101000a81548160ff021916908315150217905550620003b5565b600081519050919050565b7f4e487b7100000000000000000000000000000000000000000000000000000000600052604160045260246000fd5b7f4e487b7100000000000000000000000000000000000000000000000000000000600052602260045260246000fd5b60006002820490506001821680620000d657607f821691505b602082108103620000ec57620000eb6200008e565b5b50919050565b60008190508160005260206000209050919050565b60006020601f8301049050919050565b600082821b905092915050565b600060088302620001567fffffffffffffffffffffffffffffffffffffffffffffffffffffffffffffffff8262000117565b62000162868362000117565b95508019841693508086168417925050509392505050565b6000819050919050565b6000819050919050565b6000620001af620001a9620001a3846200017a565b62000184565b6200017a565b9050919050565b6000819050919050565b620001cb836200018e565b620001e3620001da82620001b6565b84845462000124565b825550505050565b600090565b620001fa620001eb565b62000207818484620001c0565b505050565b5b818110156200022f5762000223600082620001f0565b6001810190506200020d565b5050565b601f8211156200027e576200024881620000f2565b620002538462000107565b8101602085101562000263578190505b6200027b620002728562000107565b8301826200020c565b50505b505050565b600082821c905092915050565b6000620002a36000198460080262000283565b1980831691505092915050565b6000620002be838362000290565b9150826002028217905092915050565b620002d98262000054565b67ffffffffffffffff811115620002f557620002f46200005f565b5b620003018254620000bd565b6200030e82828562000233565b600060209050601f83116001811462000346576000841562000331578287015190505b6200033d8582620002b0565b865550620003ad565b601f1984166200035686620000f2565b60005b82811015620003805784890151825560018201915060208501945060208101905062000359565b86831015620003a057848901516200039c601f89168262000290565b8355505b6001600288020188555050505b505050505050565b61083b80620003c56000396000f3fe6080604052600436106100295760003560e01c80633b947fbb1461002e578063b902fe3d14610059575b600080fd5b34801561003a57600080fd5b50610043610075565b60405161005091906102f9565b60405180910390f35b610073600480360381019061006e919061038a565b610107565b005b60606000805461008490610406565b80601f01602080910402602001604051908101604052809291908181526020018280546100b090610406565b80156100fd5780601f106100d2576101008083540402835291602001916100fd565b820191906000526020600020905b8154815290600101906020018083116100e057829003601f168201915b5050505050905090565b6000828290500361014d576040517f08c379a000000000000000000000000000000000000000000000000000000000815260040161014490610483565b60405180910390fd5b660167e7be07d000341015610197576040517f08c379a000000000000000000000000000000000000000000000000000000000815260040161018e906104ef565b60405180910390fd5b8181600091826101a89291906106ff565b5033600160006101000a81548173ffffffffffffffffffffffffffffffffffffffff021916908373ffffffffffffffffffffffffffffffffffffffff16021790555060018060146101000a81548160ff0219169083151502179055507fc3bac773f68e28426a44561a0db8c875b6e32e828c7dfd1c870d2e616dcd678c600160149054906101000a900460ff1660405161024291906107ea565b60405180910390a16000600160146101000a81548160ff0219169083151502179055505050565b600081519050919050565b600082825260208201905092915050565b60005b838110156102a3578082015181840152602081019050610288565b60008484015250505050565b6000601f19601f8301169050919050565b60006102cb82610269565b6102d58185610274565b93506102e5818560208601610285565b6102ee816102af565b840191505092915050565b6000602082019050818103600083015261031381846102c0565b905092915050565b600080fd5b600080fd5b600080fd5b600080fd5b600080fd5b60008083601f84011261034a57610349610325565b5b8235905067ffffffffffffffff8111156103675761036661032a565b5b6020830191508360018202830111156103835761038261032f565b5b9250929050565b600080602083850312156103a1576103a061031b565b5b600083013567ffffffffffffffff8111156103bf576103be610320565b5b6103cb85828601610334565b92509250509250929050565b7f4e487b7100000000000000000000000000000000000000000000000000000000600052602260045260246000fd5b6000600282049050600182168061041e57607f821691505b602082108103610431576104306103d7565b5b50919050565b7f537065632063616e6e6f7420626520656d707479000000000000000000000000600082015250565b600061046d601483610274565b915061047882610437565b602082019050919050565b6000602082019050818103600083015261049c81610460565b9050919050565b7f4e6f7420656e6f75676820646f7567682077617320737570706c696564000000600082015250565b60006104d9601d83610274565b91506104e4826104a3565b602082019050919050565b60006020820190508181036000830152610508816104cc565b9050919050565b600082905092915050565b7f4e487b7100000000000000000000000000000000000000000000000000000000600052604160045260246000fd5b60008190508160005260206000209050919050565b60006020601f8301049050919050565b600082821b905092915050565b6000600883026105ab7fffffffffffffffffffffffffffffffffffffffffffffffffffffffffffffffff8261056e565b6105b5868361056e565b95508019841693508086168417925050509392505050565b6000819050919050565b6000819050919050565b60006105fc6105f76105f2846105cd565b6105d7565b6105cd565b9050919050565b6000819050919050565b610616836105e1565b61062a61062282610603565b84845461057b565b825550505050565b600090565b61063f610632565b61064a81848461060d565b505050565b5b8181101561066e57610663600082610637565b600181019050610650565b5050565b601f8211156106b35761068481610549565b61068d8461055e565b8101602085101561069c578190505b6106b06106a88561055e565b83018261064f565b50505b505050565b600082821c905092915050565b60006106d6600019846008026106b8565b1980831691505092915050565b60006106ef83836106c5565b9150826002028217905092915050565b610709838361050f565b67ffffffffffffffff8111156107225761072161051a565b5b61072c8254610406565b610737828285610672565b6000601f8311600181146107665760008415610754578287013590505b61075e85826106e3565b8655506107c6565b601f19841661077486610549565b60005b8281101561079c57848901358255600182019150602085019450602081019050610777565b868310156107b957848901356107b5601f8916826106c5565b8355505b6001600288020188555050505b50505050505050565b60008115159050919050565b6107e4816107cf565b82525050565b60006020820190506107ff60008301846107db565b9291505056fea2646970667358221220209ef6d7f39e16b3f4e8f0684bea4e05c6ed7dc365c1763ea5c1caf440a06bd864736f6c63430008110033",
  "linkReferences": {},
  "deployedLinkReferences": {}
}