{
  "_format": "hh-sol-artifact-1",
  "contractName": "Apilink",
  "sourceName": "contracts/Apilink.sol",
  "abi": [
    {
      "inputs": [],
      "stateMutability": "nonpayable",
      "type": "constructor"
    },
    {
      "anonymous": false,
      "inputs": [
        {
          "indexed": false,
          "internalType": "bool",
          "name": "invoke",
          "type": "bool"
        },
        {
          "indexed": false,
          "internalType": "uint256",
          "name": "id",
          "type": "uint256"
        }
      ],
      "name": "invoked",
      "type": "event"
    },
    {
      "anonymous": false,
      "inputs": [
        {
          "indexed": false,
          "internalType": "bool",
          "name": "loginStatus",
          "type": "bool"
        }
      ],
      "name": "logInStatus",
      "type": "event"
    },
    {
      "anonymous": false,
      "inputs": [
        {
          "indexed": false,
          "internalType": "bool",
          "name": "passwordset",
          "type": "bool"
        }
      ],
      "name": "logInSuccess",
      "type": "event"
    },
    {
      "anonymous": false,
      "inputs": [
        {
          "indexed": false,
          "internalType": "bool",
          "name": "",
          "type": "bool"
        }
      ],
      "name": "resultsRcvd",
      "type": "event"
    },
    {
      "inputs": [
        {
          "internalType": "uint256",
          "name": "_callid",
          "type": "uint256"
        },
        {
          "internalType": "string",
          "name": "_endpoint",
          "type": "string"
        },
        {
          "internalType": "string",
          "name": "_method",
          "type": "string"
        },
        {
          "internalType": "string",
          "name": "_body",
          "type": "string"
        },
        {
          "internalType": "string",
          "name": "_headers",
          "type": "string"
        }
      ],
      "name": "createApiCall",
      "outputs": [],
      "stateMutability": "payable",
      "type": "function"
    },
    {
      "inputs": [
        {
          "internalType": "uint256",
          "name": "_id",
          "type": "uint256"
        }
      ],
      "name": "getApiSpec",
      "outputs": [
        {
          "components": [
            {
              "internalType": "string",
              "name": "endpoint",
              "type": "string"
            },
            {
              "internalType": "string",
              "name": "method",
              "type": "string"
            },
            {
              "internalType": "string",
              "name": "body",
              "type": "string"
            },
            {
              "internalType": "string",
              "name": "headers",
              "type": "string"
            }
          ],
          "internalType": "struct Apilink.Apicalldetails",
          "name": "",
          "type": "tuple"
        }
      ],
      "stateMutability": "view",
      "type": "function"
    },
    {
      "inputs": [
        {
          "internalType": "uint256",
          "name": "_callid",
          "type": "uint256"
        }
      ],
      "name": "getChosenNode",
      "outputs": [
        {
          "internalType": "uint256",
          "name": "",
          "type": "uint256"
        }
      ],
      "stateMutability": "view",
      "type": "function"
    },
    {
      "inputs": [
        {
          "internalType": "address",
          "name": "_node",
          "type": "address"
        }
      ],
      "name": "getNodeId",
      "outputs": [
        {
          "internalType": "uint256",
          "name": "",
          "type": "uint256"
        }
      ],
      "stateMutability": "view",
      "type": "function"
    },
    {
      "inputs": [
        {
          "internalType": "uint256",
          "name": "_callid",
          "type": "uint256"
        }
      ],
      "name": "getResults",
      "outputs": [
        {
          "internalType": "string",
          "name": "",
          "type": "string"
        }
      ],
      "stateMutability": "view",
      "type": "function"
    },
    {
      "inputs": [
        {
          "internalType": "string",
          "name": "_code",
          "type": "string"
        }
      ],
      "name": "isLoggedIn",
      "outputs": [],
      "stateMutability": "nonpayable",
      "type": "function"
    },
    {
      "inputs": [
        {
          "internalType": "string",
          "name": "_passcode",
          "type": "string"
        },
        {
          "internalType": "string",
          "name": "_nodeName",
          "type": "string"
        }
      ],
      "name": "login",
      "outputs": [],
      "stateMutability": "nonpayable",
      "type": "function"
    },
    {
      "inputs": [
        {
          "internalType": "uint256",
          "name": "_callid",
          "type": "uint256"
        },
        {
          "internalType": "string",
          "name": "_cid",
          "type": "string"
        }
      ],
      "name": "setResult",
      "outputs": [],
      "stateMutability": "nonpayable",
      "type": "function"
    }
  ],
  "bytecode": "0x608060405234801561001057600080fd5b5060008060146101000a81548160ff02191690831515021790555060006001819055506000600360016101000a81548160ff02191690831515021790555060006004819055506000600581905550611f6e8061006d6000396000f3fe60806040526004361061007b5760003560e01c8063b56e41291161004e578063b56e41291461014c578063b5c8075614610189578063b7dc4020146101c6578063e2b32ec7146101ef5761007b565b80631a2e937e1461008057806331027970146100bd57806358467dbc146100e657806381a60c0d1461010f575b600080fd5b34801561008c57600080fd5b506100a760048036038101906100a29190610fb2565b61020b565b6040516100b491906110e7565b60405180910390f35b3480156100c957600080fd5b506100e460048036038101906100df919061116e565b610480565b005b3480156100f257600080fd5b5061010d600480360381019061010891906111ce565b610569565b005b34801561011b57600080fd5b5061013660048036038101906101319190610fb2565b6107ff565b6040516101439190611299565b60405180910390f35b34801561015857600080fd5b50610173600480360381019061016e9190611319565b6108e7565b6040516101809190611355565b60405180910390f35b34801561019557600080fd5b506101b060048036038101906101ab9190610fb2565b610930565b6040516101bd9190611355565b60405180910390f35b3480156101d257600080fd5b506101ed60048036038101906101e89190611370565b61094d565b005b610209600480360381019061020491906113bd565b610a74565b005b610213610f4a565b60066000838152602001908152602001600020604051806080016040529081600082018054610241906114e8565b80601f016020809104026020016040519081016040528092919081815260200182805461026d906114e8565b80156102ba5780601f1061028f576101008083540402835291602001916102ba565b820191906000526020600020905b81548152906001019060200180831161029d57829003601f168201915b505050505081526020016001820180546102d3906114e8565b80601f01602080910402602001604051908101604052809291908181526020018280546102ff906114e8565b801561034c5780601f106103215761010080835404028352916020019161034c565b820191906000526020600020905b81548152906001019060200180831161032f57829003601f168201915b50505050508152602001600282018054610365906114e8565b80601f0160208091040260200160405190810160405280929190818152602001828054610391906114e8565b80156103de5780601f106103b3576101008083540402835291602001916103de565b820191906000526020600020905b8154815290600101906020018083116103c157829003601f168201915b505050505081526020016003820180546103f7906114e8565b80601f0160208091040260200160405190810160405280929190818152602001828054610423906114e8565b80156104705780601f1061044557610100808354040283529160200191610470565b820191906000526020600020905b81548152906001019060200180831161045357829003601f168201915b5050505050815250509050919050565b600083116104c3576040517f08c379a00000000000000000000000000000000000000000000000000000000081526004016104ba90611565565b60405180910390fd5b60008282905011610509576040517f08c379a0000000000000000000000000000000000000000000000000000000008152600401610500906115d1565b60405180910390fd5b8181600b6000868152602001908152602001600020918261052b9291906117d7565b507f82198b3d7a554a58296506e34c238a808ffb26558a2c27fdb638a632b417a961600160405161055c91906118c2565b60405180910390a1505050565b600084849050116105af576040517f08c379a00000000000000000000000000000000000000000000000000000000081526004016105a690611929565b60405180910390fd5b600082829050116105f5576040517f08c379a00000000000000000000000000000000000000000000000000000000081526004016105ec90611995565b60405180910390fd5b8181600760003373ffffffffffffffffffffffffffffffffffffffff1673ffffffffffffffffffffffffffffffffffffffff16815260200190815260200160002060000191826106469291906117d7565b5033848460405160200161065c93929190611a3c565b604051602081830303815290604052600760003373ffffffffffffffffffffffffffffffffffffffff1673ffffffffffffffffffffffffffffffffffffffff16815260200190815260200160002060010190816106b99190611a66565b506009339080600181540180825580915050600190039060005260206000200160009091909190916101000a81548173ffffffffffffffffffffffffffffffffffffffff021916908373ffffffffffffffffffffffffffffffffffffffff1602179055506001600360006101000a81548160ff0219169083151502179055507fd752453b43f40c1348fc9b50c000edb5f6de776343c745d73c344950c01bcc3f600360009054906101000a900460ff1660405161077691906118c2565b60405180910390a16001600560008282546107919190611b67565b92505081905550600554600860003373ffffffffffffffffffffffffffffffffffffffff1673ffffffffffffffffffffffffffffffffffffffff168152602001908152602001600020819055506000600360006101000a81548160ff02191690831515021790555050505050565b606060008211610844576040517f08c379a000000000000000000000000000000000000000000000000000000000815260040161083b90611565565b60405180910390fd5b600b60008381526020019081526020016000208054610862906114e8565b80601f016020809104026020016040519081016040528092919081815260200182805461088e906114e8565b80156108db5780601f106108b0576101008083540402835291602001916108db565b820191906000526020600020905b8154815290600101906020018083116108be57829003601f168201915b50505050509050919050565b6000600860008373ffffffffffffffffffffffffffffffffffffffff1673ffffffffffffffffffffffffffffffffffffffff168152602001908152602001600020549050919050565b6000600a6000838152602001908152602001600020549050919050565b33828260405160200161096293929190611a3c565b60405160208183030381529060405280519060200120600760003373ffffffffffffffffffffffffffffffffffffffff1673ffffffffffffffffffffffffffffffffffffffff1681526020019081526020016000206001016040516109c79190611c3e565b604051809103902014610a0f576040517f08c379a0000000000000000000000000000000000000000000000000000000008152600401610a0690611ca1565b60405180910390fd5b6001600360016101000a81548160ff0219169083151502179055507f312943f07fdce5c520f52c201f9ce2c67862745f76974b614f03a69f92701c37600360019054906101000a900460ff16604051610a6891906118c2565b60405180910390a15050565b60008911610ab7576040517f08c379a0000000000000000000000000000000000000000000000000000000008152600401610aae90611565565b60405180910390fd5b60008888905011610afd576040517f08c379a0000000000000000000000000000000000000000000000000000000008152600401610af490611d0d565b60405180910390fd5b6040518060400160405280600381526020017f4745540000000000000000000000000000000000000000000000000000000000815250805190602001208686604051610b4a929190611d52565b60405180910390201480610bb057506040518060400160405280600481526020017f504f535400000000000000000000000000000000000000000000000000000000815250805190602001208686604051610ba6929190611d52565b6040518091039020145b610bef576040517f08c379a0000000000000000000000000000000000000000000000000000000008152600401610be690611db7565b60405180910390fd5b660167e7be07d000341015610c39576040517f08c379a0000000000000000000000000000000000000000000000000000000008152600401610c3090611e23565b60405180910390fd5b336000806101000a81548173ffffffffffffffffffffffffffffffffffffffff021916908373ffffffffffffffffffffffffffffffffffffffff1602179055506001600060146101000a81548160ff02191690831515021790555088600181905550610ca3610ec8565b600a60006001548152602001908152602001600020819055507ff2db711f53a1e7c1939c8f01f0b6b7cd13f9521a8dea436e6d098baa1bf24f34600060149054906101000a900460ff168a604051610cfc929190611e43565b60405180910390a160008060146101000a81548160ff021916908315150217905550604051806080016040528089898080601f016020809104026020016040519081016040528093929190818152602001838380828437600081840152601f19601f82011690508083019250505050505050815260200187878080601f016020809104026020016040519081016040528093929190818152602001838380828437600081840152601f19601f82011690508083019250505050505050815260200185858080601f016020809104026020016040519081016040528093929190818152602001838380828437600081840152601f19601f82011690508083019250505050505050815260200183838080601f016020809104026020016040519081016040528093929190818152602001838380828437600081840152601f19601f82011690508083019250505050505050815250600660008b81526020019081526020016000206000820151816000019081610e779190611a66565b506020820151816001019081610e8d9190611a66565b506040820151816002019081610ea39190611a66565b506060820151816003019081610eb99190611a66565b50905050505050505050505050565b60008060098054905011610f11576040517f08c379a0000000000000000000000000000000000000000000000000000000008152600401610f0890611eb8565b60405180910390fd5b60016009805490506001600454610f289190611b67565b610f329190611f07565b610f3c9190611b67565b600481905550600454905090565b6040518060800160405280606081526020016060815260200160608152602001606081525090565b600080fd5b600080fd5b6000819050919050565b610f8f81610f7c565b8114610f9a57600080fd5b50565b600081359050610fac81610f86565b92915050565b600060208284031215610fc857610fc7610f72565b5b6000610fd684828501610f9d565b91505092915050565b600081519050919050565b600082825260208201905092915050565b60005b83811015611019578082015181840152602081019050610ffe565b60008484015250505050565b6000601f19601f8301169050919050565b600061104182610fdf565b61104b8185610fea565b935061105b818560208601610ffb565b61106481611025565b840191505092915050565b6000608083016000830151848203600086015261108c8282611036565b915050602083015184820360208601526110a68282611036565b915050604083015184820360408601526110c08282611036565b915050606083015184820360608601526110da8282611036565b9150508091505092915050565b60006020820190508181036000830152611101818461106f565b905092915050565b600080fd5b600080fd5b600080fd5b60008083601f84011261112e5761112d611109565b5b8235905067ffffffffffffffff81111561114b5761114a61110e565b5b60208301915083600182028301111561116757611166611113565b5b9250929050565b60008060006040848603121561118757611186610f72565b5b600061119586828701610f9d565b935050602084013567ffffffffffffffff8111156111b6576111b5610f77565b5b6111c286828701611118565b92509250509250925092565b600080600080604085870312156111e8576111e7610f72565b5b600085013567ffffffffffffffff81111561120657611205610f77565b5b61121287828801611118565b9450945050602085013567ffffffffffffffff81111561123557611234610f77565b5b61124187828801611118565b925092505092959194509250565b600082825260208201905092915050565b600061126b82610fdf565b611275818561124f565b9350611285818560208601610ffb565b61128e81611025565b840191505092915050565b600060208201905081810360008301526112b38184611260565b905092915050565b600073ffffffffffffffffffffffffffffffffffffffff82169050919050565b60006112e6826112bb565b9050919050565b6112f6816112db565b811461130157600080fd5b50565b600081359050611313816112ed565b92915050565b60006020828403121561132f5761132e610f72565b5b600061133d84828501611304565b91505092915050565b61134f81610f7c565b82525050565b600060208201905061136a6000830184611346565b92915050565b6000806020838503121561138757611386610f72565b5b600083013567ffffffffffffffff8111156113a5576113a4610f77565b5b6113b185828601611118565b92509250509250929050565b600080600080600080600080600060a08a8c0312156113df576113de610f72565b5b60006113ed8c828d01610f9d565b99505060208a013567ffffffffffffffff81111561140e5761140d610f77565b5b61141a8c828d01611118565b985098505060408a013567ffffffffffffffff81111561143d5761143c610f77565b5b6114498c828d01611118565b965096505060608a013567ffffffffffffffff81111561146c5761146b610f77565b5b6114788c828d01611118565b945094505060808a013567ffffffffffffffff81111561149b5761149a610f77565b5b6114a78c828d01611118565b92509250509295985092959850929598565b7f4e487b7100000000000000000000000000000000000000000000000000000000600052602260045260246000fd5b6000600282049050600182168061150057607f821691505b602082108103611513576115126114b9565b5b50919050565b7f43616c6c2069642063616e6e6f74206265206e756c6c00000000000000000000600082015250565b600061154f60168361124f565b915061155a82611519565b602082019050919050565b6000602082019050818103600083015261157e81611542565b9050919050565b7f4349442063616e6e6f74206265206e756c6c0000000000000000000000000000600082015250565b60006115bb60128361124f565b91506115c682611585565b602082019050919050565b600060208201905081810360008301526115ea816115ae565b9050919050565b600082905092915050565b7f4e487b7100000000000000000000000000000000000000000000000000000000600052604160045260246000fd5b60008190508160005260206000209050919050565b60006020601f8301049050919050565b600082821b905092915050565b60006008830261168d7fffffffffffffffffffffffffffffffffffffffffffffffffffffffffffffffff82611650565b6116978683611650565b95508019841693508086168417925050509392505050565b6000819050919050565b60006116d46116cf6116ca84610f7c565b6116af565b610f7c565b9050919050565b6000819050919050565b6116ee836116b9565b6117026116fa826116db565b84845461165d565b825550505050565b600090565b61171761170a565b6117228184846116e5565b505050565b5b818110156117465761173b60008261170f565b600181019050611728565b5050565b601f82111561178b5761175c8161162b565b61176584611640565b81016020851015611774578190505b61178861178085611640565b830182611727565b50505b505050565b600082821c905092915050565b60006117ae60001984600802611790565b1980831691505092915050565b60006117c7838361179d565b9150826002028217905092915050565b6117e183836115f1565b67ffffffffffffffff8111156117fa576117f96115fc565b5b61180482546114e8565b61180f82828561174a565b6000601f83116001811461183e576000841561182c578287013590505b61183685826117bb565b86555061189e565b601f19841661184c8661162b565b60005b828110156118745784890135825560018201915060208501945060208101905061184f565b86831015611891578489013561188d601f89168261179d565b8355505b6001600288020188555050505b50505050505050565b60008115159050919050565b6118bc816118a7565b82525050565b60006020820190506118d760008301846118b3565b92915050565b7f50617373636f64652063616e6e6f7420626520656d7074790000000000000000600082015250565b600061191360188361124f565b915061191e826118dd565b602082019050919050565b6000602082019050818103600083015261194281611906565b9050919050565b7f4e6f64656e616d652063616e6e6f7420626520656d7074790000000000000000600082015250565b600061197f60188361124f565b915061198a82611949565b602082019050919050565b600060208201905081810360008301526119ae81611972565b9050919050565b60008160601b9050919050565b60006119cd826119b5565b9050919050565b60006119df826119c2565b9050919050565b6119f76119f2826112db565b6119d4565b82525050565b600081905092915050565b82818337600083830152505050565b6000611a2383856119fd565b9350611a30838584611a08565b82840190509392505050565b6000611a4882866119e6565b601482019150611a59828486611a17565b9150819050949350505050565b611a6f82610fdf565b67ffffffffffffffff811115611a8857611a876115fc565b5b611a9282546114e8565b611a9d82828561174a565b600060209050601f831160018114611ad05760008415611abe578287015190505b611ac885826117bb565b865550611b30565b601f198416611ade8661162b565b60005b82811015611b0657848901518255600182019150602085019450602081019050611ae1565b86831015611b235784890151611b1f601f89168261179d565b8355505b6001600288020188555050505b505050505050565b7f4e487b7100000000000000000000000000000000000000000000000000000000600052601160045260246000fd5b6000611b7282610f7c565b9150611b7d83610f7c565b9250828201905080821115611b9557611b94611b38565b5b92915050565b600081905092915050565b60008190508160005260206000209050919050565b60008154611bc8816114e8565b611bd28186611b9b565b94506001821660008114611bed5760018114611c0257611c35565b60ff1983168652811515820286019350611c35565b611c0b85611ba6565b60005b83811015611c2d57815481890152600182019150602081019050611c0e565b838801955050505b50505092915050565b6000611c4a8284611bbb565b915081905092915050565b7f4e6f2070616e63616b657320666f7220796f7500000000000000000000000000600082015250565b6000611c8b60138361124f565b9150611c9682611c55565b602082019050919050565b60006020820190508181036000830152611cba81611c7e565b9050919050565b7f456e64706f696e742063616e6e6f7420626520656d7074790000000000000000600082015250565b6000611cf760188361124f565b9150611d0282611cc1565b602082019050919050565b60006020820190508181036000830152611d2681611cea565b9050919050565b6000611d398385611b9b565b9350611d46838584611a08565b82840190509392505050565b6000611d5f828486611d2d565b91508190509392505050565b7f4f6e6c792047455420616e6420504f53542061726520737570706f7274656400600082015250565b6000611da1601f8361124f565b9150611dac82611d6b565b602082019050919050565b60006020820190508181036000830152611dd081611d94565b9050919050565b7f4e6f7420656e6f75676820646f7567682077617320737570706c696564000000600082015250565b6000611e0d601d8361124f565b9150611e1882611dd7565b602082019050919050565b60006020820190508181036000830152611e3c81611e00565b9050919050565b6000604082019050611e5860008301856118b3565b611e656020830184611346565b9392505050565b7f4e6f206974656d7320617661696c61626c650000000000000000000000000000600082015250565b6000611ea260128361124f565b9150611ead82611e6c565b602082019050919050565b60006020820190508181036000830152611ed181611e95565b9050919050565b7f4e487b7100000000000000000000000000000000000000000000000000000000600052601260045260246000fd5b6000611f1282610f7c565b9150611f1d83610f7c565b925082611f2d57611f2c611ed8565b5b82820690509291505056fea26469706673582212204f004de21bb98f2396a7bd17a93df452f8ae9bf2398315fda32b77e0e1ffa57964736f6c63430008110033",
  "linkReferences": {},
  "deployedLinkReferences": {}
}