{
  "_format": "hh-sol-artifact-1",
  "contractName": "Apilink",
  "sourceName": "contracts/Apilink.sol",
  "abi": [
    {
      "inputs": [],
      "stateMutability": "nonpayable",
      "type": "constructor"
    },
    {
      "anonymous": false,
      "inputs": [
        {
          "indexed": false,
          "internalType": "bool",
          "name": "invoke",
          "type": "bool"
        },
        {
          "indexed": false,
          "internalType": "uint256",
          "name": "id",
          "type": "uint256"
        }
      ],
      "name": "invoked",
      "type": "event"
    },
    {
      "anonymous": false,
      "inputs": [
        {
          "indexed": false,
          "internalType": "bool",
          "name": "passwordset",
          "type": "bool"
        }
      ],
      "name": "logInSuccess",
      "type": "event"
    },
    {
      "inputs": [
        {
          "internalType": "uint256",
          "name": "_callid",
          "type": "uint256"
        },
        {
          "internalType": "string",
          "name": "_endpoint",
          "type": "string"
        },
        {
          "internalType": "string",
          "name": "_method",
          "type": "string"
        },
        {
          "internalType": "string",
          "name": "_body",
          "type": "string"
        },
        {
          "internalType": "string",
          "name": "_headers",
          "type": "string"
        }
      ],
      "name": "createApiCall",
      "outputs": [],
      "stateMutability": "payable",
      "type": "function"
    },
    {
      "inputs": [
        {
          "internalType": "address",
          "name": "_user",
          "type": "address"
        },
        {
          "internalType": "uint256",
          "name": "_id",
          "type": "uint256"
        }
      ],
      "name": "getApiSpec",
      "outputs": [
        {
          "components": [
            {
              "internalType": "string",
              "name": "endpoint",
              "type": "string"
            },
            {
              "internalType": "string",
              "name": "method",
              "type": "string"
            },
            {
              "internalType": "string",
              "name": "body",
              "type": "string"
            },
            {
              "internalType": "string",
              "name": "headers",
              "type": "string"
            }
          ],
          "internalType": "struct Apilink.apicalldetails",
          "name": "",
          "type": "tuple"
        }
      ],
      "stateMutability": "view",
      "type": "function"
    },
    {
      "inputs": [],
      "name": "getChosenNode",
      "outputs": [
        {
          "internalType": "uint256",
          "name": "",
          "type": "uint256"
        }
      ],
      "stateMutability": "view",
      "type": "function"
    },
    {
      "inputs": [
        {
          "internalType": "address",
          "name": "_node",
          "type": "address"
        }
      ],
      "name": "getNodeId",
      "outputs": [
        {
          "internalType": "uint256",
          "name": "",
          "type": "uint256"
        }
      ],
      "stateMutability": "view",
      "type": "function"
    },
    {
      "inputs": [
        {
          "internalType": "string",
          "name": "_code",
          "type": "string"
        }
      ],
      "name": "isLoggedIn",
      "outputs": [
        {
          "internalType": "bool",
          "name": "",
          "type": "bool"
        }
      ],
      "stateMutability": "nonpayable",
      "type": "function"
    },
    {
      "inputs": [
        {
          "internalType": "string",
          "name": "_passcode",
          "type": "string"
        },
        {
          "internalType": "string",
          "name": "_nodeName",
          "type": "string"
        }
      ],
      "name": "login",
      "outputs": [],
      "stateMutability": "nonpayable",
      "type": "function"
    }
  ],
  "bytecode": "0x608060405260405180608001604052806040518060200160405280600081525081526020016040518060400160405280600381526020017f474554000000000000000000000000000000000000000000000000000000000081525081526020016040518060200160405280600081525081526020016040518060200160405280600081525081525060056000820151816000019081620000a09190620003c6565b506020820151816001019081620000b89190620003c6565b506040820151816002019081620000d09190620003c6565b506060820151816003019081620000e89190620003c6565b505050348015620000f857600080fd5b5060008060146101000a81548160ff02191690831515021790555060006001819055506000600260016101000a81548160ff02191690831515021790555060006003819055506000600481905550620004ad565b600081519050919050565b7f4e487b7100000000000000000000000000000000000000000000000000000000600052604160045260246000fd5b7f4e487b7100000000000000000000000000000000000000000000000000000000600052602260045260246000fd5b60006002820490506001821680620001ce57607f821691505b602082108103620001e457620001e362000186565b5b50919050565b60008190508160005260206000209050919050565b60006020601f8301049050919050565b600082821b905092915050565b6000600883026200024e7fffffffffffffffffffffffffffffffffffffffffffffffffffffffffffffffff826200020f565b6200025a86836200020f565b95508019841693508086168417925050509392505050565b6000819050919050565b6000819050919050565b6000620002a7620002a16200029b8462000272565b6200027c565b62000272565b9050919050565b6000819050919050565b620002c38362000286565b620002db620002d282620002ae565b8484546200021c565b825550505050565b600090565b620002f2620002e3565b620002ff818484620002b8565b505050565b5b8181101562000327576200031b600082620002e8565b60018101905062000305565b5050565b601f82111562000376576200034081620001ea565b6200034b84620001ff565b810160208510156200035b578190505b620003736200036a85620001ff565b83018262000304565b50505b505050565b600082821c905092915050565b60006200039b600019846008026200037b565b1980831691505092915050565b6000620003b6838362000388565b9150826002028217905092915050565b620003d1826200014c565b67ffffffffffffffff811115620003ed57620003ec62000157565b5b620003f98254620001b5565b620004068282856200032b565b600060209050601f8311600181146200043e576000841562000429578287015190505b620004358582620003a8565b865550620004a5565b601f1984166200044e86620001ea565b60005b82811015620004785784890151825560018201915060208501945060208101905062000451565b8683101562000498578489015162000494601f89168262000388565b8355505b6001600288020188555050505b505050505050565b611b6180620004bd6000396000f3fe6080604052600436106100555760003560e01c806334eea6071461005a5780634c34b43a1461009757806358467dbc146100c2578063b56e4129146100eb578063b7dc402014610128578063e2b32ec714610165575b600080fd5b34801561006657600080fd5b50610081600480360381019061007c9190610df2565b610181565b60405161008e9190610f3a565b60405180910390f35b3480156100a357600080fd5b506100ac610434565b6040516100b99190610f6b565b60405180910390f35b3480156100ce57600080fd5b506100e960048036038101906100e49190610feb565b61043e565b005b3480156100f757600080fd5b50610112600480360381019061010d919061106c565b6106f9565b60405161011f9190610f6b565b60405180910390f35b34801561013457600080fd5b5061014f600480360381019061014a9190611099565b610742565b60405161015c9190611101565b60405180910390f35b61017f600480360381019061017a919061111c565b610839565b005b610189610d2c565b600960008473ffffffffffffffffffffffffffffffffffffffff1673ffffffffffffffffffffffffffffffffffffffff16815260200190815260200160002060008381526020019081526020016000206040518060800160405290816000820180546101f490611247565b80601f016020809104026020016040519081016040528092919081815260200182805461022090611247565b801561026d5780601f106102425761010080835404028352916020019161026d565b820191906000526020600020905b81548152906001019060200180831161025057829003601f168201915b5050505050815260200160018201805461028690611247565b80601f01602080910402602001604051908101604052809291908181526020018280546102b290611247565b80156102ff5780601f106102d4576101008083540402835291602001916102ff565b820191906000526020600020905b8154815290600101906020018083116102e257829003601f168201915b5050505050815260200160028201805461031890611247565b80601f016020809104026020016040519081016040528092919081815260200182805461034490611247565b80156103915780601f1061036657610100808354040283529160200191610391565b820191906000526020600020905b81548152906001019060200180831161037457829003601f168201915b505050505081526020016003820180546103aa90611247565b80601f01602080910402602001604051908101604052809291908181526020018280546103d690611247565b80156104235780601f106103f857610100808354040283529160200191610423565b820191906000526020600020905b81548152906001019060200180831161040657829003601f168201915b505050505081525050905092915050565b6000600354905090565b60008484905011610484576040517f08c379a000000000000000000000000000000000000000000000000000000000815260040161047b906112d5565b60405180910390fd5b600082829050116104ca576040517f08c379a00000000000000000000000000000000000000000000000000000000081526004016104c190611341565b60405180910390fd5b604051806040016040528083838080601f016020809104026020016040519081016040528093929190818152602001838380828437600081840152601f19601f820116905080830192505050505050508152602001338686604051602001610534939291906113e8565b604051602081830303815290604052815250600a60003373ffffffffffffffffffffffffffffffffffffffff1673ffffffffffffffffffffffffffffffffffffffff168152602001908152602001600020600082015181600001908161059a91906115ed565b5060208201518160010190816105b091906115ed565b50905050600c339080600181540180825580915050600190039060005260206000200160009091909190916101000a81548173ffffffffffffffffffffffffffffffffffffffff021916908373ffffffffffffffffffffffffffffffffffffffff1602179055506001600260006101000a81548160ff0219169083151502179055507fd752453b43f40c1348fc9b50c000edb5f6de776343c745d73c344950c01bcc3f600260009054906101000a900460ff166040516106709190611101565b60405180910390a160016004600082825461068b91906116ee565b92505081905550600454600b60003373ffffffffffffffffffffffffffffffffffffffff1673ffffffffffffffffffffffffffffffffffffffff168152602001908152602001600020819055506000600260006101000a81548160ff02191690831515021790555050505050565b6000600b60008373ffffffffffffffffffffffffffffffffffffffff1673ffffffffffffffffffffffffffffffffffffffff168152602001908152602001600020549050919050565b6000338383604051602001610759939291906113e8565b60405160208183030381529060405280519060200120600a60003373ffffffffffffffffffffffffffffffffffffffff1673ffffffffffffffffffffffffffffffffffffffff1681526020019081526020016000206001016040516107be91906117c5565b604051809103902014610806576040517f08c379a00000000000000000000000000000000000000000000000000000000081526004016107fd90611828565b60405180910390fd5b6001600260016101000a81548160ff021916908315150217905550600260019054906101000a900460ff16905092915050565b6000891161087c576040517f08c379a000000000000000000000000000000000000000000000000000000000815260040161087390611894565b60405180910390fd5b600088889050116108c2576040517f08c379a00000000000000000000000000000000000000000000000000000000081526004016108b990611900565b60405180910390fd5b6040518060400160405280600381526020017f474554000000000000000000000000000000000000000000000000000000000081525080519060200120868660405161090f929190611945565b6040518091039020148061097557506040518060400160405280600481526020017f504f53540000000000000000000000000000000000000000000000000000000081525080519060200120868660405161096b929190611945565b6040518091039020145b6109b4576040517f08c379a00000000000000000000000000000000000000000000000000000000081526004016109ab906119aa565b60405180910390fd5b660167e7be07d0003410156109fe576040517f08c379a00000000000000000000000000000000000000000000000000000000081526004016109f590611a16565b60405180910390fd5b336000806101000a81548173ffffffffffffffffffffffffffffffffffffffff021916908373ffffffffffffffffffffffffffffffffffffffff1602179055506001600060146101000a81548160ff02191690831515021790555088600181905550610a68610cb1565b7ff2db711f53a1e7c1939c8f01f0b6b7cd13f9521a8dea436e6d098baa1bf24f34600060149054906101000a900460ff168a604051610aa8929190611a36565b60405180910390a160008060146101000a81548160ff021916908315150217905550604051806080016040528089898080601f016020809104026020016040519081016040528093929190818152602001838380828437600081840152601f19601f82011690508083019250505050505050815260200187878080601f016020809104026020016040519081016040528093929190818152602001838380828437600081840152601f19601f82011690508083019250505050505050815260200185858080601f016020809104026020016040519081016040528093929190818152602001838380828437600081840152601f19601f82011690508083019250505050505050815260200183838080601f016020809104026020016040519081016040528093929190818152602001838380828437600081840152601f19601f82011690508083019250505050505050815250600960003373ffffffffffffffffffffffffffffffffffffffff1673ffffffffffffffffffffffffffffffffffffffff16815260200190815260200160002060008b81526020019081526020016000206000820151816000019081610c6091906115ed565b506020820151816001019081610c7691906115ed565b506040820151816002019081610c8c91906115ed565b506060820151816003019081610ca291906115ed565b50905050505050505050505050565b6000600c8054905011610cf9576040517f08c379a0000000000000000000000000000000000000000000000000000000008152600401610cf090611aab565b60405180910390fd5b6001600c805490506001600354610d1091906116ee565b610d1a9190611afa565b610d2491906116ee565b600381905550565b6040518060800160405280606081526020016060815260200160608152602001606081525090565b600080fd5b600080fd5b600073ffffffffffffffffffffffffffffffffffffffff82169050919050565b6000610d8982610d5e565b9050919050565b610d9981610d7e565b8114610da457600080fd5b50565b600081359050610db681610d90565b92915050565b6000819050919050565b610dcf81610dbc565b8114610dda57600080fd5b50565b600081359050610dec81610dc6565b92915050565b60008060408385031215610e0957610e08610d54565b5b6000610e1785828601610da7565b9250506020610e2885828601610ddd565b9150509250929050565b600081519050919050565b600082825260208201905092915050565b60005b83811015610e6c578082015181840152602081019050610e51565b60008484015250505050565b6000601f19601f8301169050919050565b6000610e9482610e32565b610e9e8185610e3d565b9350610eae818560208601610e4e565b610eb781610e78565b840191505092915050565b60006080830160008301518482036000860152610edf8282610e89565b91505060208301518482036020860152610ef98282610e89565b91505060408301518482036040860152610f138282610e89565b91505060608301518482036060860152610f2d8282610e89565b9150508091505092915050565b60006020820190508181036000830152610f548184610ec2565b905092915050565b610f6581610dbc565b82525050565b6000602082019050610f806000830184610f5c565b92915050565b600080fd5b600080fd5b600080fd5b60008083601f840112610fab57610faa610f86565b5b8235905067ffffffffffffffff811115610fc857610fc7610f8b565b5b602083019150836001820283011115610fe457610fe3610f90565b5b9250929050565b6000806000806040858703121561100557611004610d54565b5b600085013567ffffffffffffffff81111561102357611022610d59565b5b61102f87828801610f95565b9450945050602085013567ffffffffffffffff81111561105257611051610d59565b5b61105e87828801610f95565b925092505092959194509250565b60006020828403121561108257611081610d54565b5b600061109084828501610da7565b91505092915050565b600080602083850312156110b0576110af610d54565b5b600083013567ffffffffffffffff8111156110ce576110cd610d59565b5b6110da85828601610f95565b92509250509250929050565b60008115159050919050565b6110fb816110e6565b82525050565b600060208201905061111660008301846110f2565b92915050565b600080600080600080600080600060a08a8c03121561113e5761113d610d54565b5b600061114c8c828d01610ddd565b99505060208a013567ffffffffffffffff81111561116d5761116c610d59565b5b6111798c828d01610f95565b985098505060408a013567ffffffffffffffff81111561119c5761119b610d59565b5b6111a88c828d01610f95565b965096505060608a013567ffffffffffffffff8111156111cb576111ca610d59565b5b6111d78c828d01610f95565b945094505060808a013567ffffffffffffffff8111156111fa576111f9610d59565b5b6112068c828d01610f95565b92509250509295985092959850929598565b7f4e487b7100000000000000000000000000000000000000000000000000000000600052602260045260246000fd5b6000600282049050600182168061125f57607f821691505b60208210810361127257611271611218565b5b50919050565b600082825260208201905092915050565b7f50617373636f64652063616e6e6f7420626520656d7074790000000000000000600082015250565b60006112bf601883611278565b91506112ca82611289565b602082019050919050565b600060208201905081810360008301526112ee816112b2565b9050919050565b7f4e6f64656e616d652063616e6e6f7420626520656d7074790000000000000000600082015250565b600061132b601883611278565b9150611336826112f5565b602082019050919050565b6000602082019050818103600083015261135a8161131e565b9050919050565b60008160601b9050919050565b600061137982611361565b9050919050565b600061138b8261136e565b9050919050565b6113a361139e82610d7e565b611380565b82525050565b600081905092915050565b82818337600083830152505050565b60006113cf83856113a9565b93506113dc8385846113b4565b82840190509392505050565b60006113f48286611392565b6014820191506114058284866113c3565b9150819050949350505050565b7f4e487b7100000000000000000000000000000000000000000000000000000000600052604160045260246000fd5b60008190508160005260206000209050919050565b60006020601f8301049050919050565b600082821b905092915050565b6000600883026114a37fffffffffffffffffffffffffffffffffffffffffffffffffffffffffffffffff82611466565b6114ad8683611466565b95508019841693508086168417925050509392505050565b6000819050919050565b60006114ea6114e56114e084610dbc565b6114c5565b610dbc565b9050919050565b6000819050919050565b611504836114cf565b611518611510826114f1565b848454611473565b825550505050565b600090565b61152d611520565b6115388184846114fb565b505050565b5b8181101561155c57611551600082611525565b60018101905061153e565b5050565b601f8211156115a15761157281611441565b61157b84611456565b8101602085101561158a578190505b61159e61159685611456565b83018261153d565b50505b505050565b600082821c905092915050565b60006115c4600019846008026115a6565b1980831691505092915050565b60006115dd83836115b3565b9150826002028217905092915050565b6115f682610e32565b67ffffffffffffffff81111561160f5761160e611412565b5b6116198254611247565b611624828285611560565b600060209050601f8311600181146116575760008415611645578287015190505b61164f85826115d1565b8655506116b7565b601f19841661166586611441565b60005b8281101561168d57848901518255600182019150602085019450602081019050611668565b868310156116aa57848901516116a6601f8916826115b3565b8355505b6001600288020188555050505b505050505050565b7f4e487b7100000000000000000000000000000000000000000000000000000000600052601160045260246000fd5b60006116f982610dbc565b915061170483610dbc565b925082820190508082111561171c5761171b6116bf565b5b92915050565b600081905092915050565b60008190508160005260206000209050919050565b6000815461174f81611247565b6117598186611722565b945060018216600081146117745760018114611789576117bc565b60ff19831686528115158202860193506117bc565b6117928561172d565b60005b838110156117b457815481890152600182019150602081019050611795565b838801955050505b50505092915050565b60006117d18284611742565b915081905092915050565b7f4e6f2070616e63616b657320666f7220796f7500000000000000000000000000600082015250565b6000611812601383611278565b915061181d826117dc565b602082019050919050565b6000602082019050818103600083015261184181611805565b9050919050565b7f43616c6c2069642063616e6e6f74206265206e756c6c00000000000000000000600082015250565b600061187e601683611278565b915061188982611848565b602082019050919050565b600060208201905081810360008301526118ad81611871565b9050919050565b7f456e64706f696e742063616e6e6f7420626520656d7074790000000000000000600082015250565b60006118ea601883611278565b91506118f5826118b4565b602082019050919050565b60006020820190508181036000830152611919816118dd565b9050919050565b600061192c8385611722565b93506119398385846113b4565b82840190509392505050565b6000611952828486611920565b91508190509392505050565b7f4f6e6c792047455420616e6420504f53542061726520737570706f7274656400600082015250565b6000611994601f83611278565b915061199f8261195e565b602082019050919050565b600060208201905081810360008301526119c381611987565b9050919050565b7f4e6f7420656e6f75676820646f7567682077617320737570706c696564000000600082015250565b6000611a00601d83611278565b9150611a0b826119ca565b602082019050919050565b60006020820190508181036000830152611a2f816119f3565b9050919050565b6000604082019050611a4b60008301856110f2565b611a586020830184610f5c565b9392505050565b7f4e6f206974656d7320617661696c61626c650000000000000000000000000000600082015250565b6000611a95601283611278565b9150611aa082611a5f565b602082019050919050565b60006020820190508181036000830152611ac481611a88565b9050919050565b7f4e487b7100000000000000000000000000000000000000000000000000000000600052601260045260246000fd5b6000611b0582610dbc565b9150611b1083610dbc565b925082611b2057611b1f611acb565b5b82820690509291505056fea264697066735822122095b631a31e40bbcd48147aeac15dcb284f4c772f063d18f4066a6a4a4142d16464736f6c63430008110033",
  "linkReferences": {},
  "deployedLinkReferences": {}
}