{
  "_format": "hh-sol-artifact-1",
  "contractName": "Apilink",
  "sourceName": "contracts/Apilink.sol",
  "abi": [
    {
      "inputs": [],
      "stateMutability": "nonpayable",
      "type": "constructor"
    },
    {
      "anonymous": false,
      "inputs": [
        {
          "indexed": false,
          "internalType": "bool",
          "name": "invoke",
          "type": "bool"
        },
        {
          "indexed": false,
          "internalType": "uint256",
          "name": "id",
          "type": "uint256"
        },
        {
          "indexed": false,
          "internalType": "uint256",
          "name": "nodeIndex",
          "type": "uint256"
        }
      ],
      "name": "invoked",
      "type": "event"
    },
    {
      "anonymous": false,
      "inputs": [
        {
          "indexed": false,
          "internalType": "bool",
          "name": "loginStatus",
          "type": "bool"
        }
      ],
      "name": "logInStatus",
      "type": "event"
    },
    {
      "anonymous": false,
      "inputs": [
        {
          "indexed": false,
          "internalType": "bool",
          "name": "passwordset",
          "type": "bool"
        },
        {
          "indexed": false,
          "internalType": "uint256",
          "name": "n_index",
          "type": "uint256"
        }
      ],
      "name": "logInSuccess",
      "type": "event"
    },
    {
      "inputs": [
        {
          "internalType": "uint256",
          "name": "_callid",
          "type": "uint256"
        },
        {
          "internalType": "string",
          "name": "_endpoint",
          "type": "string"
        },
        {
          "internalType": "string",
          "name": "_method",
          "type": "string"
        },
        {
          "internalType": "string",
          "name": "_body",
          "type": "string"
        },
        {
          "internalType": "string",
          "name": "_headers",
          "type": "string"
        }
      ],
      "name": "createApiCall",
      "outputs": [],
      "stateMutability": "payable",
      "type": "function"
    },
    {
      "inputs": [
        {
          "internalType": "address",
          "name": "_user",
          "type": "address"
        },
        {
          "internalType": "uint256",
          "name": "_id",
          "type": "uint256"
        }
      ],
      "name": "getApiSpec",
      "outputs": [
        {
          "components": [
            {
              "internalType": "string",
              "name": "endpoint",
              "type": "string"
            },
            {
              "internalType": "string",
              "name": "method",
              "type": "string"
            },
            {
              "internalType": "string",
              "name": "body",
              "type": "string"
            },
            {
              "internalType": "string",
              "name": "headers",
              "type": "string"
            }
          ],
          "internalType": "struct Apilink.apicalldetails",
          "name": "",
          "type": "tuple"
        }
      ],
      "stateMutability": "view",
      "type": "function"
    },
    {
      "inputs": [
        {
          "internalType": "string",
          "name": "_code",
          "type": "string"
        }
      ],
      "name": "isLoggedIn",
      "outputs": [],
      "stateMutability": "nonpayable",
      "type": "function"
    },
    {
      "inputs": [
        {
          "internalType": "string",
          "name": "_passcode",
          "type": "string"
        },
        {
          "internalType": "string",
          "name": "_nodeName",
          "type": "string"
        }
      ],
      "name": "login",
      "outputs": [],
      "stateMutability": "nonpayable",
      "type": "function"
    }
  ],
  "bytecode": "0x608060405260405180608001604052806040518060200160405280600081525081526020016040518060400160405280600381526020017f474554000000000000000000000000000000000000000000000000000000000081525081526020016040518060200160405280600081525081526020016040518060200160405280600081525081525060056000820151816000019081620000a09190620003c6565b506020820151816001019081620000b89190620003c6565b506040820151816002019081620000d09190620003c6565b506060820151816003019081620000e89190620003c6565b505050348015620000f857600080fd5b5060008060146101000a81548160ff02191690831515021790555060006001819055506000600260016101000a81548160ff02191690831515021790555060006003819055506000600481905550620004ad565b600081519050919050565b7f4e487b7100000000000000000000000000000000000000000000000000000000600052604160045260246000fd5b7f4e487b7100000000000000000000000000000000000000000000000000000000600052602260045260246000fd5b60006002820490506001821680620001ce57607f821691505b602082108103620001e457620001e362000186565b5b50919050565b60008190508160005260206000209050919050565b60006020601f8301049050919050565b600082821b905092915050565b6000600883026200024e7fffffffffffffffffffffffffffffffffffffffffffffffffffffffffffffffff826200020f565b6200025a86836200020f565b95508019841693508086168417925050509392505050565b6000819050919050565b6000819050919050565b6000620002a7620002a16200029b8462000272565b6200027c565b62000272565b9050919050565b6000819050919050565b620002c38362000286565b620002db620002d282620002ae565b8484546200021c565b825550505050565b600090565b620002f2620002e3565b620002ff818484620002b8565b505050565b5b8181101562000327576200031b600082620002e8565b60018101905062000305565b5050565b601f82111562000376576200034081620001ea565b6200034b84620001ff565b810160208510156200035b578190505b620003736200036a85620001ff565b83018262000304565b50505b505050565b600082821c905092915050565b60006200039b600019846008026200037b565b1980831691505092915050565b6000620003b6838362000388565b9150826002028217905092915050565b620003d1826200014c565b67ffffffffffffffff811115620003ed57620003ec62000157565b5b620003f98254620001b5565b620004068282856200032b565b600060209050601f8311600181146200043e576000841562000429578287015190505b620004358582620003a8565b865550620004a5565b601f1984166200044e86620001ea565b60005b82811015620004785784890151825560018201915060208501945060208101905062000451565b8683101562000498578489015162000494601f89168262000388565b8355505b6001600288020188555050505b505050505050565b611a9b80620004bd6000396000f3fe60806040526004361061003f5760003560e01c806334eea6071461004457806358467dbc14610081578063b7dc4020146100aa578063e2b32ec7146100d3575b600080fd5b34801561005057600080fd5b5061006b60048036038101906100669190610d3d565b6100ef565b6040516100789190610e85565b60405180910390f35b34801561008d57600080fd5b506100a860048036038101906100a39190610f0c565b6103a2565b005b3480156100b657600080fd5b506100d160048036038101906100cc9190610f8d565b610661565b005b6100ed60048036038101906100e89190610fda565b610788565b005b6100f7610c77565b600960008473ffffffffffffffffffffffffffffffffffffffff1673ffffffffffffffffffffffffffffffffffffffff168152602001908152602001600020600083815260200190815260200160002060405180608001604052908160008201805461016290611105565b80601f016020809104026020016040519081016040528092919081815260200182805461018e90611105565b80156101db5780601f106101b0576101008083540402835291602001916101db565b820191906000526020600020905b8154815290600101906020018083116101be57829003601f168201915b505050505081526020016001820180546101f490611105565b80601f016020809104026020016040519081016040528092919081815260200182805461022090611105565b801561026d5780601f106102425761010080835404028352916020019161026d565b820191906000526020600020905b81548152906001019060200180831161025057829003601f168201915b5050505050815260200160028201805461028690611105565b80601f01602080910402602001604051908101604052809291908181526020018280546102b290611105565b80156102ff5780601f106102d4576101008083540402835291602001916102ff565b820191906000526020600020905b8154815290600101906020018083116102e257829003601f168201915b5050505050815260200160038201805461031890611105565b80601f016020809104026020016040519081016040528092919081815260200182805461034490611105565b80156103915780601f1061036657610100808354040283529160200191610391565b820191906000526020600020905b81548152906001019060200180831161037457829003601f168201915b505050505081525050905092915050565b600084849050116103e8576040517f08c379a00000000000000000000000000000000000000000000000000000000081526004016103df90611193565b60405180910390fd5b6000828290501161042e576040517f08c379a0000000000000000000000000000000000000000000000000000000008152600401610425906111ff565b60405180910390fd5b604051806040016040528083838080601f016020809104026020016040519081016040528093929190818152602001838380828437600081840152601f19601f820116905080830192505050505050508152602001338686604051602001610498939291906112a6565b604051602081830303815290604052815250600a60003373ffffffffffffffffffffffffffffffffffffffff1673ffffffffffffffffffffffffffffffffffffffff16815260200190815260200160002060008201518160000190816104fe91906114ab565b50602082015181600101908161051491906114ab565b50905050600c339080600181540180825580915050600190039060005260206000200160009091909190916101000a81548173ffffffffffffffffffffffffffffffffffffffff021916908373ffffffffffffffffffffffffffffffffffffffff160217905550600454600b60003373ffffffffffffffffffffffffffffffffffffffff1673ffffffffffffffffffffffffffffffffffffffff168152602001908152602001600020819055506001600260006101000a81548160ff0219169083151502179055507fc32b70717dc40452f193233f62ac6608432e3c018c5dbb3a18ab18cb2af18a1c600260009054906101000a900460ff1660045460405161061e9291906115a7565b60405180910390a160016004600082825461063991906115ff565b925050819055506000600260006101000a81548160ff02191690831515021790555050505050565b338282604051602001610676939291906112a6565b60405160208183030381529060405280519060200120600a60003373ffffffffffffffffffffffffffffffffffffffff1673ffffffffffffffffffffffffffffffffffffffff1681526020019081526020016000206001016040516106db91906116d6565b604051809103902014610723576040517f08c379a000000000000000000000000000000000000000000000000000000000815260040161071a90611739565b60405180910390fd5b6001600260016101000a81548160ff0219169083151502179055507f312943f07fdce5c520f52c201f9ce2c67862745f76974b614f03a69f92701c37600260019054906101000a900460ff1660405161077c9190611759565b60405180910390a15050565b600089116107cb576040517f08c379a00000000000000000000000000000000000000000000000000000000081526004016107c2906117c0565b60405180910390fd5b60008888905011610811576040517f08c379a00000000000000000000000000000000000000000000000000000000081526004016108089061182c565b60405180910390fd5b6040518060400160405280600381526020017f474554000000000000000000000000000000000000000000000000000000000081525080519060200120868660405161085e929190611871565b604051809103902014806108c457506040518060400160405280600481526020017f504f5354000000000000000000000000000000000000000000000000000000008152508051906020012086866040516108ba929190611871565b6040518091039020145b610903576040517f08c379a00000000000000000000000000000000000000000000000000000000081526004016108fa906118d6565b60405180910390fd5b660167e7be07d00034101561094d576040517f08c379a000000000000000000000000000000000000000000000000000000000815260040161094490611942565b60405180910390fd5b336000806101000a81548173ffffffffffffffffffffffffffffffffffffffff021916908373ffffffffffffffffffffffffffffffffffffffff1602179055506001600060146101000a81548160ff021916908315150217905550886001819055507f4ba6162ecbc0bdd98fef2bbae878d7984468d445b5fd6201540d861de4aafa93600060149054906101000a900460ff168a6109e9610c01565b6040516109f893929190611962565b60405180910390a160008060146101000a81548160ff021916908315150217905550604051806080016040528089898080601f016020809104026020016040519081016040528093929190818152602001838380828437600081840152601f19601f82011690508083019250505050505050815260200187878080601f016020809104026020016040519081016040528093929190818152602001838380828437600081840152601f19601f82011690508083019250505050505050815260200185858080601f016020809104026020016040519081016040528093929190818152602001838380828437600081840152601f19601f82011690508083019250505050505050815260200183838080601f016020809104026020016040519081016040528093929190818152602001838380828437600081840152601f19601f82011690508083019250505050505050815250600960003373ffffffffffffffffffffffffffffffffffffffff1673ffffffffffffffffffffffffffffffffffffffff16815260200190815260200160002060008b81526020019081526020016000206000820151816000019081610bb091906114ab565b506020820151816001019081610bc691906114ab565b506040820151816002019081610bdc91906114ab565b506060820151816003019081610bf291906114ab565b50905050505050505050505050565b600080600c8054905011610c4a576040517f08c379a0000000000000000000000000000000000000000000000000000000008152600401610c41906119e5565b60405180910390fd5b600c805490506001600354610c5f91906115ff565b610c699190611a34565b600381905550600354905090565b6040518060800160405280606081526020016060815260200160608152602001606081525090565b600080fd5b600080fd5b600073ffffffffffffffffffffffffffffffffffffffff82169050919050565b6000610cd482610ca9565b9050919050565b610ce481610cc9565b8114610cef57600080fd5b50565b600081359050610d0181610cdb565b92915050565b6000819050919050565b610d1a81610d07565b8114610d2557600080fd5b50565b600081359050610d3781610d11565b92915050565b60008060408385031215610d5457610d53610c9f565b5b6000610d6285828601610cf2565b9250506020610d7385828601610d28565b9150509250929050565b600081519050919050565b600082825260208201905092915050565b60005b83811015610db7578082015181840152602081019050610d9c565b60008484015250505050565b6000601f19601f8301169050919050565b6000610ddf82610d7d565b610de98185610d88565b9350610df9818560208601610d99565b610e0281610dc3565b840191505092915050565b60006080830160008301518482036000860152610e2a8282610dd4565b91505060208301518482036020860152610e448282610dd4565b91505060408301518482036040860152610e5e8282610dd4565b91505060608301518482036060860152610e788282610dd4565b9150508091505092915050565b60006020820190508181036000830152610e9f8184610e0d565b905092915050565b600080fd5b600080fd5b600080fd5b60008083601f840112610ecc57610ecb610ea7565b5b8235905067ffffffffffffffff811115610ee957610ee8610eac565b5b602083019150836001820283011115610f0557610f04610eb1565b5b9250929050565b60008060008060408587031215610f2657610f25610c9f565b5b600085013567ffffffffffffffff811115610f4457610f43610ca4565b5b610f5087828801610eb6565b9450945050602085013567ffffffffffffffff811115610f7357610f72610ca4565b5b610f7f87828801610eb6565b925092505092959194509250565b60008060208385031215610fa457610fa3610c9f565b5b600083013567ffffffffffffffff811115610fc257610fc1610ca4565b5b610fce85828601610eb6565b92509250509250929050565b600080600080600080600080600060a08a8c031215610ffc57610ffb610c9f565b5b600061100a8c828d01610d28565b99505060208a013567ffffffffffffffff81111561102b5761102a610ca4565b5b6110378c828d01610eb6565b985098505060408a013567ffffffffffffffff81111561105a57611059610ca4565b5b6110668c828d01610eb6565b965096505060608a013567ffffffffffffffff81111561108957611088610ca4565b5b6110958c828d01610eb6565b945094505060808a013567ffffffffffffffff8111156110b8576110b7610ca4565b5b6110c48c828d01610eb6565b92509250509295985092959850929598565b7f4e487b7100000000000000000000000000000000000000000000000000000000600052602260045260246000fd5b6000600282049050600182168061111d57607f821691505b6020821081036111305761112f6110d6565b5b50919050565b600082825260208201905092915050565b7f50617373636f64652063616e6e6f7420626520656d7074790000000000000000600082015250565b600061117d601883611136565b915061118882611147565b602082019050919050565b600060208201905081810360008301526111ac81611170565b9050919050565b7f4e6f64656e616d652063616e6e6f7420626520656d7074790000000000000000600082015250565b60006111e9601883611136565b91506111f4826111b3565b602082019050919050565b60006020820190508181036000830152611218816111dc565b9050919050565b60008160601b9050919050565b60006112378261121f565b9050919050565b60006112498261122c565b9050919050565b61126161125c82610cc9565b61123e565b82525050565b600081905092915050565b82818337600083830152505050565b600061128d8385611267565b935061129a838584611272565b82840190509392505050565b60006112b28286611250565b6014820191506112c3828486611281565b9150819050949350505050565b7f4e487b7100000000000000000000000000000000000000000000000000000000600052604160045260246000fd5b60008190508160005260206000209050919050565b60006020601f8301049050919050565b600082821b905092915050565b6000600883026113617fffffffffffffffffffffffffffffffffffffffffffffffffffffffffffffffff82611324565b61136b8683611324565b95508019841693508086168417925050509392505050565b6000819050919050565b60006113a86113a361139e84610d07565b611383565b610d07565b9050919050565b6000819050919050565b6113c28361138d565b6113d66113ce826113af565b848454611331565b825550505050565b600090565b6113eb6113de565b6113f68184846113b9565b505050565b5b8181101561141a5761140f6000826113e3565b6001810190506113fc565b5050565b601f82111561145f57611430816112ff565b61143984611314565b81016020851015611448578190505b61145c61145485611314565b8301826113fb565b50505b505050565b600082821c905092915050565b600061148260001984600802611464565b1980831691505092915050565b600061149b8383611471565b9150826002028217905092915050565b6114b482610d7d565b67ffffffffffffffff8111156114cd576114cc6112d0565b5b6114d78254611105565b6114e282828561141e565b600060209050601f8311600181146115155760008415611503578287015190505b61150d858261148f565b865550611575565b601f198416611523866112ff565b60005b8281101561154b57848901518255600182019150602085019450602081019050611526565b868310156115685784890151611564601f891682611471565b8355505b6001600288020188555050505b505050505050565b60008115159050919050565b6115928161157d565b82525050565b6115a181610d07565b82525050565b60006040820190506115bc6000830185611589565b6115c96020830184611598565b9392505050565b7f4e487b7100000000000000000000000000000000000000000000000000000000600052601160045260246000fd5b600061160a82610d07565b915061161583610d07565b925082820190508082111561162d5761162c6115d0565b5b92915050565b600081905092915050565b60008190508160005260206000209050919050565b6000815461166081611105565b61166a8186611633565b94506001821660008114611685576001811461169a576116cd565b60ff19831686528115158202860193506116cd565b6116a38561163e565b60005b838110156116c5578154818901526001820191506020810190506116a6565b838801955050505b50505092915050565b60006116e28284611653565b915081905092915050565b7f4e6f2070616e63616b657320666f7220796f7500000000000000000000000000600082015250565b6000611723601383611136565b915061172e826116ed565b602082019050919050565b6000602082019050818103600083015261175281611716565b9050919050565b600060208201905061176e6000830184611589565b92915050565b7f43616c6c2069642063616e6e6f74206265206e756c6c00000000000000000000600082015250565b60006117aa601683611136565b91506117b582611774565b602082019050919050565b600060208201905081810360008301526117d98161179d565b9050919050565b7f456e64706f696e742063616e6e6f7420626520656d7074790000000000000000600082015250565b6000611816601883611136565b9150611821826117e0565b602082019050919050565b6000602082019050818103600083015261184581611809565b9050919050565b60006118588385611633565b9350611865838584611272565b82840190509392505050565b600061187e82848661184c565b91508190509392505050565b7f4f6e6c792047455420616e6420504f53542061726520737570706f7274656400600082015250565b60006118c0601f83611136565b91506118cb8261188a565b602082019050919050565b600060208201905081810360008301526118ef816118b3565b9050919050565b7f4e6f7420656e6f75676820646f7567682077617320737570706c696564000000600082015250565b600061192c601d83611136565b9150611937826118f6565b602082019050919050565b6000602082019050818103600083015261195b8161191f565b9050919050565b60006060820190506119776000830186611589565b6119846020830185611598565b6119916040830184611598565b949350505050565b7f4e6f206974656d7320617661696c61626c650000000000000000000000000000600082015250565b60006119cf601283611136565b91506119da82611999565b602082019050919050565b600060208201905081810360008301526119fe816119c2565b9050919050565b7f4e487b7100000000000000000000000000000000000000000000000000000000600052601260045260246000fd5b6000611a3f82610d07565b9150611a4a83610d07565b925082611a5a57611a59611a05565b5b82820690509291505056fea264697066735822122032fb22f7f32dc67685f0afa85e112dd89f180858319e3636638751713c22581c64736f6c63430008110033",
  "linkReferences": {},
  "deployedLinkReferences": {}
}